S016000052544F535F70726F6A6563745F312E73726563E0
S3150000000078220020BD200000251F0000B920000036
S31500000010B9200000B9200000B9200000B920000076
S315000000200000000000000000000000008910000031
S31500000030B920000000000000A11000000911000016
S31500000040BD180000511A0000711B0000511C000071
S31500000050000000000000000000000000000000009A
S31500000060000000000000000000000000000000008A
S31500000070000000000000000000000000000000007A
S31500000080000000000000000000000000000000006A
S31500000090000000000000000000000000000000005A
S315000000A0000000000000000000000000000000004A
S315000000B0000000000000000000000000000000003A
S315000000C0000000000000000000000000000000002A
S315000000D0000000000000000000000000000000001A
S315000000E0000000000000000000000000000000000A
S315000000F000000000000000000000000000000000FA
S3150000010000000000000000000000000000000000E9
S3150000011000000000000000000000000000000000D9
S3150000012000000000000000000000000000000000C9
S3150000013000000000000000000000000000000000B9
S3150000014000000000000000000000000000000000A9
S315000001500000000000000000000000000000000099
S315000001600000000000000000000000000000000089
S315000001700000000000000000000000000000000079
S315000001800000000000000000000000000000000069
S315000001900000000000000000000000000000000059
S315000001A00000000000000000000000000000000049
S315000001B00000000000000000000000000000000039
S315000001C00348044B834202D0034B03B118477047E0
S315000001D00C0000200C00002000000000064B074920
S315000001E0C91A891048BF0131491003D0044B0BB11D
S315000001F001481847704700BF0C0000200C00002083
S315000002000000000010B5064C237843B9FFF7D8FF6D
S31500000210044B13B10448AFF300800123237010BDD3
S3150000022028000020000000009044000008B5054B9F
S315000002301BB105490548AFF30080BDE80840FFF74C
S31500000240CDBF00BF000000002C000020904400003D
S315000002502DE9F0410446D0E902854068A8EB050780
S3150000026097422844154408D80E463A46A5EB080599
S3150000027003F0E8FA2A466068F11903F0E3FABFF3DF
S315000002805F8FE560BDE8F0812DE9F8434FF0000986
S31500000290064688461746D0E902243369151B9C4258
S315000002A003F1FF3125BF03F1FF339B180B1B1B1B0B
S315000002B0BD4228BF3D469D4228BF1D467068414647
S315000002C02A46204403F0BEFAB2682C44A24208BF74
S315000002D00024A944A8447F1BBFF35F8FF460002F5E
S315000002E0DBD14846BDE8F883F8B5164CA8220021B4
S315000002F0204603F09FFA4FF4806600230321102066
S31500000300114A124F124D21616161A261E7612662B5
S31500000310A3626362E36222666566A0662367E3669C
S315000003206367BFF35F8F0B4B9C46A3F11000ACEBEA
S31500000330030213F9011D8342A154F8D1BFF35F8F65
S31500000340F8BD00BF54040020C83800005400002047
S31500000350440000209040000038B5214B00EB4004DB
S3150000036003EBC40EDEF82C40013000EB4000012CFC
S315000003708C46154603EBC00015D0022C0FD034BBBB
S31500000380DEF82830DEF8242093429CBFDEF82010E9
S315000003905B18013B9A1A95421CD9204638BDBDE828
S315000003A03840FFF771BFDEF82830DEF82440A3425C
S315000003B09CBFDEF820105B18013B1C1B944228BF33
S315000003C0144661462246FFF743FF204638BD002407
S315000003D0204638BD2A466146FFF73AFF2C46DCE741
S315000003E054040020F8B50B4B04461B780D46532BDE
S315000003F0164601D0FFF778FFEFF311874FF0200183
S3150000040081F31188324629462046FFF7A5FF87F378
S315000004101188F8BD5404002010B50446D0E9013215
S31500000420501C984207D8236899540246E1686368CD
S315000004300131C4E902019A4200D010BD2168206949
S31500000440FFF7D0FFA368984215BF4FF0FF33002394
S31500000450E360A36010BD00BF2DE9F84F91420F463F
S31500000460DDE90A94154683461E4668D30B464FF0CF
S315000004700108B3FBF5F39D4208F10108F9D9B0452F
S3150000048038BFB04614F0010A02D1B9F1000F3DD1D0
S31500000490DBF80C30002B29DB012402E005FB04F419
S315000004A0013E012EFAD8B7FBF4F39D4205D805FBB1
S315000004B004F4B7FBF4F39D42F9D9224E06E0AC42B0
S315000004C0B4FBF5F30CD31C46B7FBF3F3F1565846D1
S315000004D004FB1377FFF7A0FFDBF80C30002BEEDAF6
S315000004E0BAF1000F02D0B9F1000F09D1BDE8F88FBB
S315000004F020215846FFF790FFDBF80C30002BF5DB88
S31500000500C14509F1FF39F3D8BDE8F88FA30711D427
S3150000051020240CE021465846FFF77EFFDBF80C301E
S3150000052009F1FF39002BE1DBB9F1000FB2D0C1456B
S31500000530F0D8ADE7002E0CBF30242024F7E74FF0AB
S3150000054001089CE7944000002DE9F04F0023402469
S315000005509BB00DF1280ACDE904A481460C46174646
S31500000560CDE90633089006E004A8FFF755FF079B80
S31500000570002BC0F2AE8014F9011B002900F0A18007
S315000005802529F1D10026234613F9012BA2F12301D7
S315000005900D2908D8DFE801F08007070707070707D6
S315000005A07C0784070778A2F13001C9B209294FF008
S315000005B000050FD805EB850502EB450593F90020EC
S315000005C01C46A2F13001C9B20929A5F1300503F193
S315000005D00103EFD92E2A00F000814FF0000B94F9A9
S315000005E0001021F0040068281C465DD02529BBD0E8
S315000005F05839CBB2202BBAD82029B8D801A353F842
S3150000060021F000BFDB0600006F0500006F0500004B
S315000006106F0500006F0500006F0500006F05000004
S315000006206F0500006F0500006F0500006F050000F4
S31500000630C70700005D0700006F0500006F0500009A
S315000006406F0500006F0500006F0500006F050000D4
S315000006506F0500006F0500006F0500006F050000C4
S315000006606F050000250700006F0500006F050000FC
S31500000670F70600006F050000430700006F05000045
S315000006806F050000DB0600001C4646F002067AE70E
S315000006901C4646F0040676E71C4646F0080672E756
S315000006A01C4646F001066EE714F9011B21F004030F
S315000006B0682B9BD114F9011B21F00403682B95D1FB
S315000006C0F2E7079B002B04DD069C002C40F09E8081
S315000006D0234418461BB0BDE8F08F102239685B46EC
S315000006E0081D386009680DEB0200CDE90056FFF7DA
S315000006F0B3FE079B3CE73B68784A191D39601D68C5
S31500000700002D08BF154615F9011B00293FF42FAF30
S3150000071004A8FFF781FE079B002BF4DA18461BB0EE
S31500000720BDE8F08F08230020102239680D1D3D60BA
S315000007300968CDE900300DEB0200FFF78DFE079B3F
S3150000074016E739685B46081D386009680A22CDE954
S31500000750005604A8FFF780FE079B09E73B684FF0A9
S315000007600108191D39601B681A46039383EAE3736F
S31500000770A3EBE273092B09DD59481946A0FB03C315
S31500000780632908F101084FEAD303F6DCD84538BFE0
S31500000790D846002D43D1079900250B46002998DB42
S315000007A0039B002B65DB73076FD406F00303022B54
S315000007B074D05B460A22CDE90056039904A8FFF7D8
S315000007C04BFE079BD4E63B6804A81A1D3A6093F9D2
S315000007D00010FFF721FE079BCAE694F90110A1F16C
S315000007E03002D2B2092A55D81C464FF0000B0BEB4B
S315000007F08B0201EB420214F9011FA2F1300BA1F1A9
S315000008003003DBB2092BF2D9631CEAE622465146D5
S3150000081048460393FFF7E6FD039B234459E7039AF3
S3150000082006F00203002A1ADB720718D4002B4CD0FC
S31500000830BBF1000F10D0F0070CD50DE0202104A865
S31500000840FFF7EAFD0799013D00290B46FFF641AF88
S31500000850002DA3D0A845F1D307990B469EE7013D8D
S3150000086013B1BBF1000FF7D0F207F5D4002DF1D18B
S3150000087091E75B422D2104A80393FFF7CDFD07996D
S3150000088000290B46FFF625AF8FE72B2104A8FFF7BB
S31500000890C3FDF4E74FF0000B0133A2E6BBF1000FF6
S315000008A087D1002D85D0454516D9302104A8FFF7FC
S315000008B0B3FD0799013D00290B46FFF60AAF002D4F
S315000008C0F1D10029FFF605AF73E7F107C2D5079B03
S315000008D0002BBFF66EAFFCE60B46F2E7D4380000FD
S315000008E0CDCCCCCC0EB400B582B003AB53F8041B10
S315000008F001AA0193FFF728FE02B05DF804EB03B0EE
S31500000900704700BF022800D070470249024800F035
S31500000910D3BD00BF4041000020080020014610B5AD
S3150000092000230222124800F079FE0446C0B94FF6B1
S31500000930FF7310490870013B9BB243B10A78002A45
S31500000940F9D00B78012B4FF000030B700ED100206D
S31500000950094B0A4A0A49FFF7C5FF4FF4967405E0AA
S315000009600020084B054A0649FFF7BCFF204610BD8C
S315000009702808002003000020DC380000D4400000D6
S31500000980083900002439000010B5444A444B126867
S315000009908CB044491B684FEA124CADF80820424A15
S315000009A0096812681C0C4148ADF804308DF8064001
S315000009B03F4B0C0C0068ADF80C108DF80E40110C76
S315000009C0ADF81820ADF828203A4C3B4A1B6824683D
S315000009D012688DF80AC0ADF810004FEA104C37487F
S315000009E0ADF814301B0C8DF812C08DF816304FEA96
S315000009F0144CD0E90003ADF81C40ADF82000040CFF
S31500000A00100C8DF822408DF826001C0C2C488DF811
S31500000A101A108DF81EC0ADF824208DF82A10ADF8F6
S31500000A202C308DF82E40FFF779FF08B10CB010BDC1
S31500000A3004A8FFF773FF0028F8D107A8FFF76EFF99
S31500000A400028F3D108A8FFF769FF0028EED101A816
S31500000A50FFF764FF0028E9D109A8FFF75FFF002828
S31500000A60E4D10BA8FFF75AFF0028DFD102A8FFF751
S31500000A7055FF0028DAD103A8FFF750FF0028D5D18B
S31500000A8005A8FFF74BFF0028D0D106A8FFF746FFC1
S31500000A900028CBD10AA8FFF741FFC7E74C39000071
S31500000AA05039000054390000583900005C39000004
S31500000AB0603900006439000068390000EC4000002D
S31500000AC00000002070B50123072482B01A462C4886
S31500000AD00DEB04018DF8074000F0A0FD054640BB74
S31500000AE04FF6FF73274C2070013B9BB263B322780D
S31500000AF0002AF9D02378012B24D00026032233467E
S31500000B0021491F48267000F0A1FD054670BB4FF62F
S31500000B10FF732070013B9BB20BB32278002AF9D0F9
S31500000B202378012B4FF00003237018D0284602B01B
S31500000B3070BD164B164A17490020FFF7D3FE28460C
S31500000B4002B070BD002323700020134B104A1149D8
S31500000B50FFF7C8FE4FF49675284602B070BD0F4BDE
S31500000B600B4A0C490020FFF7BDFEF3E730460C4B5D
S31500000B70074A0849FFF7B6FE284602B070BD00BF17
S31500000B8028080020030000201C080020243900004B
S31500000B90A440000008390000FC390000A439000018
S31500000BA06C3900002DE9F04F002485B069496A4888
S31500000BB08DF8034000F048FE002840F09F80012396
S31500000BC0FF251A46644803A98DF80C5000F026FD4F
S31500000BD00546B0B12046614B614A6249FFF782FE85
S31500000BE0614B1B681A0CADF804308DF806205F4B7C
S31500000BF05F4A5C490020FFF775FE284605B0BDE850
S31500000C00F08F4FF6FF735B4C2070013B9BB2002BBD
S31500000C1000F084802278002AF7D02378012B7BD03D
S31500000C200026012233464C480DF10301267000F0E0
S31500000C300DFD054600286CD14FF6FF732070013B71
S31500000C409BB2002B7ED02278002AF8D02378012B85
S31500000C5076D00022444B22701B68190CADF8043084
S31500000C608DF80610FFF790FE8146002866D14FF0FA
S31500000C7004080646DFF818A13F4C404F55464FF092
S31500000C80000B06225FFA8BF302A88DF809308DF867
S31500000C900D308DF80C208DF80A608DF808808DF8DF
S31500000CA00E60FFF73BFE03A8FFF738FEFFF70AFFCB
S31500000CB06278A378120242EA0342237800201A439C
S31500000CC045F8042F3946C2F312020BF1010BFFF768
S31500000CD009FEBBF1200FD4D101A8FFF71FFE09F1D1
S31500000CE02009B9F1800F05460AF1800AC6D100280D
S31500000CF07FF47DAF284605B0BDE8F08F0546204B52
S31500000D0020461B4A1749FFF7EDFD284605B0BDE80A
S31500000D10F08F30461B4B5FE70023237000201A4BF1
S31500000D200F4A1049FFF7DEFD0F4B4FF496751B680F
S31500000D301A0CADF804308DF8062058E7054656E73C
S31500000D4000232370114B064A06490020FFF7CAFD0F
S31500000D50EAE700BF08410000280800202439000007
S31500000D60B8400000083900005C390000B43A0000C1
S31500000D70C8400000030000201C080020AC3A000018
S31500000D802C3A00006C390000543A0000803A00000A
S31500000D90F804002010B10279014B1A70704700BFA9
S31500000DA0030000202DE9F0414FF001081F4C204FB1
S31500000DB0204EEFF3108288F31088236813B9402180
S31500000DC0FB70F97023680133236082F31088D6F82C
S31500000DD0203123F0011323F4404343F00503C6F802
S31500000DE02031FFF7DFFE144B0546144A144940B183
S31500000DF00020FFF777FD2A4612490020FFF772FD13
S31500000E0000BEEFF3108288F31088236813B12368BD
S31500000E10013B2360236813B98021FB70F97082F3CC
S31500000E201088012002F07EF9C3E700BF841A002073
S31500000E30000D084000080840D43A0000F4400000C5
S31500000E4008390000F03A000080B50127174C184E0B
S31500000E50184DEFF3108287F31088236813B94021E9
S31500000E60F370F17023680133236082F31088D5F89C
S31500000E701C3123F0011323F4404343F00503C5F866
S31500000E801C31EFF3108287F31088236813B12368AF
S31500000E90013B2360236813B98021F370F17082F35C
S31500000EA01088012002F03EF9D3E700BF841A002023
S31500000EB0000D084000080840704700BFFFF7FCBF60
S31500000EC000BE704738B5164C4FF0FF31206801F070
S31500000ED07DFC012803D000212068FFF7F1FF114BAC
S31500000EE01A7802B138BD01221A70FFF7E7FF0E4DDE
S31500000EF02B68013B2B60002BF4D0002320681A4698
S31500000F00194601F0DBFA0128F2D000212068FFF72C
S31500000F10D7FF2B68013B2B60002BEED138BD00BFFD
S31500000F2070190020741900207819002038B50023A4
S31500000F300C4D0D4C01214FF480700C4A2B60237030
S31500000F4001F080FA0A4B186038B100F039F800F069
S31500000F506DF801F0ADFF002038BD0146FFF7B0FF88
S31500000F60F3E700BF78190020741900202819002023
S31500000F70701900204FF4007330B4034D034C056024
S31500000F800C60136030BC7047C8180020C8100020E1
S31500000F904FF4007330B4034D034C05600C601360CE
S31500000FA030BC7047681000206808002010B5044661
S31500000FB0FFF788FF2046BDE81040FFF7F3BE00BFED
S31500000FC030B501240D480E4A03680E4D85B0191937
S31500000FD0CDE901250C4B01604FF480720B490C489A
S31500000FE0009401F057FE0B4B186008B105B030BDF8
S31500000FF0014605B0BDE83040FFF762BF7819002012
S31500001000782200208019002038410000103B0000A3
S31500001010AD0F00007C19002010B50446FFF752FF03
S315000010202046BDE81040FFF70FBF00BF30B50224D1
S315000010300D480E4A03680E4D85B0591CCDE90125B1
S315000010400C4B01604FF480720B490C48009401F080
S3150000105021FE0B4B186008B105B030BD014605B046
S31500001060BDE83040FFF72CBF781900207826002015
S31500001070E41900203C410000103B0000191000005C
S31500001080E019002000BEFEE71EF0040F0CBFEFF3D0
S315000010900880EFF309800149084700002D11000080
S315000010A00F4B1968EFF309821EF0100F08BF22EDEF
S315000010B0108A22E9F04FEFF30B8342F8043D0A60F1
S315000010C04FF0100080F31188BFF34F8FBFF36F8F7F
S315000010D002F066F84FF0000080F3118800F002B8C5
S315000010E0781D0020074801680A6802CA81F30B8848
S315000010F0B2E8F04F1EF0100F08BFB2EC108A82F370
S3150000110009887047781D002010B5EFF3118410236D
S3150000111083F3118802F034F818B14FF08052024B75
S315000011205A6084F3118810BD00ED00E008B58369AC
S3150000113013F8023C022B02D0032B04D808BDBDE8ED
S315000011400840FFF7CFBF4FF47E71024B024A0348B7
S3150000115000F0B4FE1C3B0000A4420000303B00003F
S3150000116070B44FF080756FF00204094E283122F0FA
S31500001170010240F80C6C40F8045C40F8244C40F83E
S31500001180203C40F8082C70BC40F8481D704700BF52
S315000011908510000008B5EFF31181102383F3118841
S315000011A00A4A13680133012B136000D008BD084AB0
S315000011B0084B11605B68C3F30803002BF6D040F2BE
S315000011C0A441054B054A064800F078FE481A00205F
S315000011D0441A002000ED00E0583B00009042000059
S315000011E0303B000008B5094A13683BB1013B136068
S315000011F01BB9074B1B6883F3118808BD40F2AD414C
S31500001200044B054A054800F059FE00BF481A002065
S31500001210441A0020A03B00007C420000303B000046
S3150000122080B3194B9A8990B2120409D4BFF34F8F39
S3150000123030BFBFF36F8F62B6BFF36F8F72B6704762
S315000012404AF202514FF0000CB3F8FE23A3F8FE1346
S3150000125092B242F42542A3F80CC0A3F8FE23BFF3D2
S315000012604F8F30BFBFF36F8F62B6BFF36F8F72B60B
S31500001270B3F8FE23A3F8FE1392B242F425429881F6
S31500001280A3F8FE23704700BF00E0014008B572B620
S3150000129001F058FE0120FFF7C3FF62B6BDE8084023
S315000012A001F058BE0D4B0E4A1B68A2FB03239B0997
S315000012B0013BB3F1807F00D370474FF0E0224FF03F
S315000012C0F00C0020072110B4064C536184F823C0AB
S315000012D0906111615DF8044B704700BF101C00203F
S315000012E0D34D621000ED00E0F02208B50B4B83F8F9
S315000012F02220FFF7D7FF0A4A536B43F0404353635C
S3150000130062B6BFF36F8FEFF3148C2CF0040C8CF3E2
S315000013101488BFF36F8F02DF00BEFDE700ED00E02B
S3150000132000EF00E02DE9F84F0388DBB182464FF06D
S31500001330000B4FF00109DFF8D0800024304D4FEA52
S31500001340CB07DAF8043035F8022BD919898891428F
S315000013500AD00134032CF4D1BAF800300BF1010B9A
S315000013605B45EAD8BDE8F88FDB5909FA04F603F0C5
S31500001370B853B3F1807FF6B298F8BB3413D033423A
S3150000138031D1204A04F1200612F81630DB09E0D0EC
S3150000139012F81630012123F08003C82002F8163017
S315000013A000F094FDD5E7334211D0164A04F120012E
S315000013B012F81130DB09CCD112F81130C82043F0F5
S315000013C0800302F81130012100F080FDC1E7012001
S315000013D000F048FE98F8BB340120334388F8BB344C
S315000013E000F010FEE1E7012000F03CFE98F8BB3467
S315000013F0012023EA060388F8BB3400F003FEC0E7A9
S31500001400B84200000030084000E00140F8B506464A
S31500001410FFF788FFEFF31082012383F31088234F31
S315000014203B681BB92249CB704023CB703B68013324
S315000014303B6082F31088338823B300211D4D08E0FA
S315000014401B01134445F82340328801318BB29A427E
S3150000145018D9736853F8314003EBC1029288E00350
S315000014604FEA1223D2B2EBD502EB031055F820E077
S3150000147024F4803C2EF4803E45F820E01B0145F81C
S3150000148020C0DEE7EFF31082012383F310883B6868
S3150000149013B13B68013B3B603B681BB980200449A4
S315000014A0CB70C87082F31088F8BD00BF841A002084
S315000014B0000D08400008084008B5034B03600846C5
S315000014C0FFF7A4FF002008BD54524F5030B5836B80
S315000014D083B004460A466D46A3B193E8030085E847
S315000014E00300E16B1A7119601846636B9847A36B8A
S315000014F01BB195E8030083E80300002384F82B3032
S3150000150003B030BD2B46ECE730B5424B83B01B6AC7
S3150000151001690193019B03F00F230193019A019D39
S315000015200B7C90F82C4094B9C2F30322DBB2A2EBF9
S31500001530156293409B0804D1082003B030BD013BDF
S31500001540FAD04A78D209FAD1B323CB7101690023C4
S3150000155090F82620846980F82720026880F82B30CE
S31500001560C46180F82D3080F8283080F82E30036270
S3150000157080F82F3080F83030546A227894F801E0F1
S31500001580012A14BF4FF0040C4FF0050C62791201CA
S3150000159042EA4E0294F806E042EACE124CEA020211
S315000015A0D2B2CA7001690A7942F010020A71016961
S315000015B00A7963F3C3020A7101690A7963F30412B3
S315000015C00A710269E179137961F3C713137102692C
S315000015D0537943F001035371036893F90F30002BDD
S315000015E007DB012203F01F040B495B09A24041F807
S315000015F02320BF220369DA7190F82C302BB1002327
S3150000160080F82C30002003B030BD022203695A70E6
S31500001610F8E700BF00E0014000E100E090F808C0F4
S31500001620C0E90512BCF1010F80F82A3008D100226A
S31500001630436880F826C05B0080F8243080F82520B7
S31500001640002380F82930FFF75FBF00BF90F808C07D
S31500001650C0E90512BCF1010F80F82A300AD1002238
S31500001660436880F826C05B0043F0010380F824300D
S3150000167080F82520012380F82930FFF745BF00BFF9
S315000016802DE9F0434FF01F085F27DF260569DFF8D5
S31500001690B49185F8008005694FF0000C2F7005693C
S315000016A04FF0B30E2E700568634A6E6A0569367987
S315000016B0624C46F0E0062E740568614B6E6A056959
S315000016C0F67846F0E0066E7405686E6A0569B678C7
S315000016D0360106F0700646F00806AE7005686E6ABA
S315000016E005693778012F777814BF0426052646EA60
S315000016F04706F6B2EE7005686E6805694E4514BF7A
S315000017007726F7266E71056985F806C0056985F89E
S3150000171007E04E7B91F9115036015719F6B287F85A
S31500001720006344F8250005F1C00653F826706CF3F3
S31500001730104743F8267053F82660BFF35F8F4FF0CB
S31500001740010E6E09B60005EA080506F1604606F5C3
S3150000175061460EFA05F5C6F8805135604E7B91F963
S315000017600F5036015719F6B287F8006344F8250082
S3150000177005F1C00653F826706CF3104743F826703F
S3150000178053F82660BFF35F8F6E09B60005EA0805B9
S3150000179006F160460EFA05F506F56146C6F8805173
S315000017A035604E7B91F9105036015719F6B287F81D
S315000017B0006344F8250005F1C00653F826706CF363
S315000017C0104743F8267053F82660BFF35F8F6E0903
S315000017D0B60005EA080506F160460EFA05F506F5B7
S315000017E06146C6F8805135604D7B91F90E102D018A
S315000017F00A44EDB282F8005344F8210001F1C00218
S3150000180053F822406CF3104443F8224053F8223038
S31500001810BFF35F8F4B099B0001EA080103F16043A8
S315000018200EFA01F103F56143C3F8801119609F2296
S3150000183003691A70BDE8F08300E100E0881A002011
S315000018400060004040420F0070B500250A78016034
S3150000185002F5800202F51F62120202618A68426086
S315000018600A7B0272CA6942630A6AC0E90E52EFF342
S31500001870108C012282F310880B78C3F109039A4079
S315000018800C4B5E6826EA02025A605B688CF310888D
S31500001890FFF7F6FEC0E90755074B80F8295045616A
S315000018A080F82A50856180F82B50C36080F82C5050
S315000018B0284670BD004008404349495210B582B0E1
S315000018C0EFF30383103B5F4A5BB2C03352F8231039
S315000018D021F4803142F8231052F82330EFF30383CA
S315000018E0594A103B5BB252F8234094F82D305BBB4B
S315000018F0A369022B22D9E369012B0ED12269137940
S3150000190043F0100313712269137943F0080313712E
S315000019102269137923F01003137123685B6ADB795C
S31500001920002B3ED101222369DB7CDBB28DF8073028
S315000019309DF8073084F82D2002B010BD2269137976
S3150000194043F040031371D6E7E369002BF4D0226815
S31500001950526AD279FAB9032B17D0022B26D0012B63
S3150000196034D02269236AD17C6269D154D4E9073222
S315000019700132013BC4E90732002BDDD121690A7926
S3150000198063F386120A7102B010BD2269137943F01F
S3150000199040031371E5E705212046FFF797FDE3694C
S315000019A0D9E705212046FFF791FDBBE722691379A8
S315000019B043F0100313712269137943F0080313717E
S315000019C02269137923F010031371CAE794F82A20C9
S315000019D072B322681D4892F90F20510902F01F02C6
S315000019E003FA02F2203140F82120BFF34F8FBFF3F4
S315000019F06F8F04202169CA7942F08002CA71216979
S31500001A000A7942F010020A7121690A7922F0080265
S31500001A100A7121690A7922F010020A71226950704E
S31500001A2021694A7922F001024A7184F82C3098E73C
S31500001A3008212269537A03F0F70353722369597018
S31500001A408FE700BF00600040881A002000E100E038
S31500001A5010B5EFF30383103B424A5BB2C03352F832
S31500001A60231021F4803142F8231052F82330EFF38B
S31500001A7003833D4A103B5BB252F8234094F827306B
S31500001A80002B3FD194F82930002B3AD123685B6AAA
S31500001A90DB792BB194F82B3013B9236A002B5BD179
S31500001AA0E3692169002B40D1CB79C02223F0800362
S31500001AB0CB71216901E0013A02D0CB79DB09FAD179
S31500001AC02368284A93F91030C03352F8231021F4C2
S31500001AD0803142F8231052F82330236893F91030EE
S31500001AE0002B09DB01215A09204803F01F0360324D
S31500001AF001FA03F340F822302269D37943F0400318
S31500001B00D37110BD94F82630032B1CD094F82420F2
S31500001B1023699A7494F8282094F827300132013BFF
S31500001B2084F8282084F8273010BD236A6269D35CC4
S31500001B308B74D4E907320132013BC4E90732002B2A
S31500001B40DFD12169B0E794F82830022BDED194F872
S31500001B503030002BDAD110BD05212046FFF7B6FC48
S31500001B609EE700BF00600040881A002000E100E008
S31500001B7038B5EFF30383334A103B5BB252F8234088
S31500001B8023685B6ADB79002B48D194F829301BB1B6
S31500001B9094F82730012B4FD0E369DBB12169C023CC
S31500001BA0CA7922F04002CA71216901E0013B02D0E4
S31500001BB0CA795206FAD4EFF30383103B224A5BB28A
S31500001BC0C03352F8231021F4803142F8231052F822
S31500001BD0233038BD94F82A202AB3012022681B4DF1
S31500001BE092F90F20510902F01F02203100FA02F289
S31500001BF045F82120BFF34F8FBFF36F8F2169CA7954
S31500001C0042F08002CA7104212269517021694A7921
S31500001C1063F300024A7184F82C00BFE705212046D1
S31500001C20FFF754FCB1E708212269537A03F0F70362
S31500001C30537223695970B1E794F83030002BADD058
S31500001C40AAE700BF881A00200060004000E100E01B
S31500001C5038B5EFF303834C4A103B5BB252F82300CE
S31500001C600269537A517ADC0601F0E00151725FFA9B
S31500001C7083FC03F003022BD503695978490647D440
S31500001C800024012580F82B50DC710168FFF7F8FC71
S31500001C90B32290F8263080F82C4080F82830C461B2
S31500001CA080F82A400369846929460462DA71FFF7DD
S31500001CB00DFCEFF30383103B344A5BB2C03352F89A
S31500001CC0231021F4803142F8231052F8233038BD16
S31500001CD0002A56D11CF0080F0ED090F82B30002B9E
S31500001CE03ED1B32290F829100369C1F10301C9B2AC
S31500001CF0DA71FFF7EBFBDCE790F82C200CF004031D
S31500001D002AB3002BD5D090F82B30002B37D1E8E73B
S31500001D10002AB5D15A78C2F380115206DAD50822C4
S31500001D2080F82B105A70036801695A6A94791378FF
S31500001D30527943EAC41343EA021343F00203DBB2C7
S31500001D40CB700269537943F001035371B1E7002B5D
S31500001D50AFD003685B6ADB79002BAAD00421C8E701
S31500001D600023B32190F826508469026980F82C304C
S31500001D7080F828500462C36180F82A30D1710121AD
S31500001D80B7E703697CE700BF881A002000600040BF
S31500001D90064B074993F826001A6A51F82030C2F319
S31500001DA002620449D3400B60704700BF00E0014067
S31500001DB00C000020101C00204AF2035001232D497C
S31500001DC02D4A2DE9F043A1F8FE03A2F80431B2F83A
S31500001DD004319BB2002BFAD14FF40044012127486D
S31500001DE0274D846004F19874C0E9033304F52D444B
S31500001DF0A2F8001104601F4A224C456192F8265051
S31500001E004460146A82F8801482F8363092F83C30C6
S31500001E10D907FBD542F2117400231649148582F8BE
S31500001E202A3091F83C309B06FBD505224FF001097C
S31500001E30F12500244FF0F00E4FF4254CDFF83880E2
S31500001E40114F88F81C910F6281F8262091F8262000
S31500001E500E4B50F82220086A0D4EC0F30260C240B5
S31500001E6032601D731C7283F80CE0A1F8FEC3BDE856
S31500001E70F08300BF00E0014000C001400C000020DC
S31500001E8000C2EB0B00127A00211202210020004052
S31500001E90101C002010B50024064B012083F82840B2
S31500001EA000F0E0F8044B012083F8BB44BDE8104085
S31500001EB000F0A8B80030084000E0014000BEFEE790
S31500001EC0A0F101000028FBD1704700BF4FF47A73E0
S31500001ED010B400FB01F1114C114A2468B2FBF4F274
S31500001EE0A1FB03043CB9B0FBF2F0800860B15DF8D9
S31500001EF0044BFFF7E5BF9200B1FBF2F1A1FB031320
S31500001F002BB908460028F2D15DF8044B70474FF014
S31500001F10FF3C5DF8044B6046FFF7D2BF101C002063
S31500001F2000CA9A3B70B500240B4B0C4EB3F8202127
S31500001F30B3F84051ADB2154025FA04F3DB0704D5DA
S31500001F4056F82430E0B203B1984701340E2CF3D191
S31500001F50014BA3F8305170BD006000404C1A0020C0
S31500001F6030B5032085B000F07DF86FF0FF054FF027
S31500001F70FF31204C002322464FF0010E1E48856497
S31500001F80CDE90111039104F1C00532F8020F590998
S31500001F9060B104A800EB810151F80C0C03F01F0C92
S31500001FA00EFA0CFC20EA0C0041F80C0C954203F1E9
S31500001FB00103EAD10199114B0F4A03201167C3F8B7
S31500001FC0801202995167C3F8841203999167C3F886
S31500001FD0881200F017F80023094834F8022F03F19D
S31500001FE0C00101330AB140F82120A542F5D105B060
S31500001FF030BD00BFBA4100000080004000E100E0B3
S3150000200000600040EFF31081012383F31088124B28
S3150000201033F8102092B22AB133F81020013A92B266
S3150000202023F8102033F810309BB293B910B40B4A42
S315000020300B4CB2F8FE3334F810009BB243F4254340
S3150000204023EA0003A2F8FE3381F310885DF8044BFF
S31500002050704781F310887047081C002000E001409B
S31500002060C042000030B4EFF31081012383F31088DF
S315000020700E4A32F810309BB26BB90D4C0D4DB4F8C8
S31500002080FE3335F810C09BB243EA0C0343F42543F4
S315000020909BB2A4F8FE3332F8103001339BB222F81B
S315000020A0103081F3108830BC704700BF081C002038
S315000020B000E00140C042000000BE704708B500F0D5
S315000020C003F8FEF733FFFEE74FF4700270B52A4BB4
S315000020D02A4CC3F8882000209C60FEF713FCFFF70B
S315000020E06BFE0120FEF70EFC2368A3F5806383F3E5
S315000020F00A882348234A0021121A01F09BFB224832
S31500002100224A2349121A01F09DFB224D224B5B1BEA
S31500002110002B07DD00249E1055F8043B0134984738
S31500002120A642F9DCFFF734FEFFF7B4FE0320FFF703
S3150000213099FF4FF6FF720024184B03201A825A8229
S315000021409A82DA821A835A83FFF75CFF0320FFF72D
S3150000215089FF134B03205C609C60DC601C61FFF709
S3150000216051FF0220FEF7CEFBFFF7FAFE2046BDE840
S31500002170704000F017B800BF00ED00E0000000005E
S3150000218028000020781E0020000000200C000020FF
S31500002190BC4400000400002008000020000D084098
S315000021A000000E40704700BF4FF0FF31002200F1E3
S315000021B00803C0E90131C0E903330260704700BF7C
S315000021C000230361704700BF30B40D686B1C10D04C
S315000021D000F108031C465B681A68AA42FAD94B60EC
S315000021E099608C6061600861036830BC01330360EC
S315000021F0704704696368F2E70369D0E901128A60EF
S31500002200416851605A68824204BF82685A6000225F
S3150000221002611A68013A1A601868704770B5164666
S31500002220026C0446856B0AB386B9406801F00AFB66
S315000022306368216CA2680B449342636005F1010553
S3150000224015D32368A5636360002070BDC06801F0E4
S31500002250F9FA226CE36851429B1A2268E3609342C2
S3150000226002D2A3680B44E360022E03D00135A563B6
S31500002270002070BD012D38BF0125F8E770B5054671
S31500002280FEF788FF95F845305CB2002C14DD05F1A9
S31500002290240603E0631EDAB25CB26AB16B6A5BB114
S315000022A0304601F015F80028F4D001F0DDF8631E81
S315000022B0DAB25CB2002AF1D1FF2385F84530FEF789
S315000022C091FFFEF767FF95F844305CB2002C14DDF1
S315000022D005F1100603E0631EDAB25CB26AB12B693F
S315000022E05BB1304600F0F4FF0028F4D001F0BCF8F2
S315000022F0631EDAB25CB2002AF1D1FF2385F84430BE
S31500002300BDE87040FEF76EBF70B5002848D0C56BBB
S315000023100446002D3DD0026CA2FB0525002D38D1C8
S315000023200E46FEF737FFD4E90F30FF2100FB03F31B
S315000023302268181A626013440244A563C4E9023293
S3150000234084F8441084F84510BEB923691BB9FEF71A
S3150000235049FF012070BD04F1100000F0B9FF00280C
S31500002360F5D04FF08052124B5A60BFF34F8FBFF338
S315000023706F8FFEF737FF012070BD04F11000FFF7E5
S3150000238013FF04F12400FFF70FFFFEF72BFF0120D8
S3150000239070BD40F26311074B074A0848FFF78EFDF0
S315000023A04FF49771064B044A0448FFF787FD00BFB8
S315000023B000ED00E0F03B000054430000BC3B000091
S315000023C0E83B000030B583B01BB3D8B10D461C46C0
S315000023D082B1B9B148230193019B482B20D1E06318
S315000023E00121204622602564019BFFF78DFF2046D0
S315000023F003B030BD31B948230193019B482B0FD15F
S315000024002246ECE74FF4D071094B0A4A0A48FFF717
S3150000241055FD40F27711094B064A0748FFF74EFD76
S3150000242040F28911064B034A0348FFF747FD00BFF8
S31500002430403C000038430000BC3B0000143C000058
S31500002440243C000030B583B0B0B188420D4613D3AA
S315000024501446FAB148230193019B482B13D100235C
S3150000246022600121D06320462364019AFFF74CFFC6
S315000024702046A56303B030BD40F24731094B0A4AF6
S315000024800A48FFF71BFD40F28911094B094A074824
S31500002490FFF714FD40F27711074B064A0348FFF792
S315000024A00DFD00BF4C3C000014430000BC3B000087
S315000024B0243C000038430000143C00002DE9F041A4
S315000024C084B00192002800F0AF8004460F461E46F5
S315000024D0002900F08B80022E03D1E36B012B40F024
S315000024E09C8000F0C7FF002867D0FEF753FEA26B62
S315000024F0E36B9A4253D3022E51D00020DFF8448179
S3150000250005460DE0FEF76EFE2046FFF7B7FE00F02B
S3150000251021FDFEF73FFEA26BE36B01209A423ED3FC
S31500002520019B002B6DD0B0B3FEF75CFE00F00AFDF8
S31500002530FEF730FE94F84430FF2B08BF84F8445071
S3150000254094F84530FF2B08BF84F84550FEF74AFE45
S3150000255002A801A900F040FF002858D1FEF71AFE94
S31500002560A26BE36B9A42CDD1FEF73CFE019904F1D2
S31500002570100000F05DFE2046FFF780FE00F0EAFC4A
S315000025800028C6D14FF08053C8F80430BFF34F8FF0
S31500002590BFF36F8FBDE702A800F012FFC4E7324613
S315000025A039462046FFF73AFE636A83B9A8B9FEF7B3
S315000025B019FE012004B0BDE8F081019B002B94D0E8
S315000025C040F282311C4B1D4A1D48FFF777FC04F18F
S315000025D0240000F07DFE0028E9D04FF08052194B10
S315000025E05A60BFF34F8FBFF36F8FE0E7036C002B8A
S315000025F03FF471AF40F27E31134B104A1048FFF79B
S315000026005DFCFEF7EFFD002004B0BDE8F08120463A
S31500002610FFF734FE00F09EFCF5E740F27F310B4BEE
S31500002620064A0748FFF74AFC40F27D31084B034A49
S315000026300348FFF743FC00BFFC3C000000430000DA
S31500002640BC3B000000ED00E0543C0000AC3C000048
S31500002650E83B0000F0B585B00192002800F0A380A9
S3150000266004460E4600296ED000F004FF002857D01D
S31500002670FEF790FDA56B002D6FD1019B002B35D089
S3150000268002A800F09DFE2F46FEF7ACFD00F05AFCB6
S31500002690FEF780FD94F84430FF2B08BF84F84470A1
S315000026A094F84530FF2B08BF84F84570FEF79AFD75
S315000026B001A902A800F090FEE8B9FEF76BFDA36B36
S315000026C033BBFEF78FFD019904F1240000F0B0FD45
S315000026D02046FFF7D3FD00F03DFC58B3FEF75AFD48
S315000026E0A56B002D39D1019B002BCDD1FEF77AFDCC
S315000026F0002005B0F0BD2046FFF7C0FD00F02AFC23
S31500002700FEF748FDA36B002BF0D0FEF76BFDE5E767
S31500002710FEF768FD2046FFF7B1FD00F01BFCDDE784
S31500002720019B002BA4D040F2A551224B224A2348FC
S31500002730FFF7C4FB4FF08052214B5A60BFF34F8F17
S31500002740BFF36F8FCAE7036C002B8DD04FF4B461D3
S315000027501C4B194A1948FFF7B1FB226C5AB1E168C4
S31500002760A36811449942E16028BF2168304628BF1A
S31500002770E16001F067F8013DA563236923B9FEF71F
S3150000278031FD012005B0F0BD04F1100000F0A0FD00
S315000027900028F4D04FF08052094B5A60BFF34F8F98
S315000027A0BFF36F8FEBE740F29C51074B024A034899
S315000027B0FFF784FBFC3C0000F0420000BC3B00003D
S315000027C000ED00E0DC3D0000D03D000070B584B0B7
S315000027D00191002800F09180036C0446002B40F024
S315000027E0858000F047FE002855D0FEF7D3FCA56B88
S315000027F0002D63D1019BA3B302A800F0E1FD2E4694
S31500002800FEF7F0FC00F09EFBFEF7C4FC94F84430A3
S31500002810FF2B08BF84F8446094F84530FF2B08BFAF
S3150000282084F84560FEF7DEFC01A902A800F0D4FD9D
S31500002830E0B9FEF7AFFCA36B2BBBFEF7D3FC019907
S3150000284004F1240000F0F4FC2046FFF717FD00F029
S3150000285081FB50B3FEF79EFCA56B7DBB019B002B55
S31500002860CED1FEF7BFFC002004B070BD2046FFF7B6
S3150000287005FD00F06FFBFEF78DFCA36B002BF0D07F
S31500002880FEF7B0FCE6E7FEF7ADFC2046FFF7F6FCE8
S3150000289000F060FBDEE7019B002BA6D040F237611B
S315000028A0194B1A4A1A48FFF709FB4FF08052194B89
S315000028B05A60BFF34F8FBFF36F8FCBE7013DA56320
S315000028C0236923B9FEF78EFC012004B070BD04F124
S315000028D0100000F0FDFC0028F4D04FF080520D4BA4
S315000028E05A60BFF34F8FBFF36F8FEBE740F2326151
S315000028F0094B064A0648FFF7E1FA40F22E61074BFC
S31500002900024A0348FFF7DAFAFC3C0000DC4200000A
S31500002910BC3B000000ED00E0503D0000D03D000053
S3150000292070B500B3D9B10024124D23462A4604E0FF
S3150000293001330A2B02F108020ED0566886420FD0E8
S31500002940002CF5D155F833600133002E08BF14462C
S315000029500A2B02F10802F0D10CB1C4E9001070BDD7
S3150000296005EBC304F9E740F61531034B034A044867
S31500002970FFF7A4FA181C0020B43B0000C842000070
S31500002980BC3B000070B504460E461546FEF702FC39
S3150000299094F84430FF2B04BF002384F8443094F8A5
S315000029A04530FF2B04BF002384F84530FEF71AFCA0
S315000029B0A36B23B12046BDE87040FFF75FBC04F16E
S315000029C024002A46314600F051FC2046BDE87040FE
S315000029D0FFF754BCF8B50446214B224E1D683068FB
S315000029E00F460430FFF708FC631C17D033682D1917
S315000029F05D600BD21C4B186831680431FFF7E4FBAD
S31500002A001A4B1A68AA4200D91D60F8BD184B1868FF
S31500002A103168BDE8F8400431FFF7D6BB6FB93368BB
S31500002A206A1E5A60002DF1D10F4B186831680431C7
S31500002A30FFF7CAFB0D4B1B68F8BD0E4B31685A6891
S31500002A4037688A603068316835681C68043001343C
S31500002A501C6094680431FC60606091606B61F8BD35
S31500002A60881C0020781D0020D41C00206C1C00202F
S31500002A70D01C0020901C002080B54FF08058124CCE
S31500002A80124E134D134FDFF850900EE0FEF782FB07
S31500002A90F368D8680430FFF7AFFB2B68013B2B6067
S31500002AA02368013B2360FEF79DFB2368002BEDD1D5
S31500002AB03B68012B05D9C9F80480BFF34F8FBFF3DC
S31500002AC06F8FFEF7E3FBF0E7A41C0020A81C002094
S31500002AD08C1C0020001D002000ED00E02DE9F047D1
S31500002AE0604B196801311960002900F09080DFF809
S31500002AF09CC1DCF800309942C0F081805A4C2368B2
S31500002B001868002800F09A800020584E0546584A5A
S31500002B10DFF87CA169E0D3F80C809F68D3F814E055
S31500002B20C7F808809F68C8F80470DEF8047003F1DF
S31500002B300408474504BFDF68CEF804705D61DEF81F
S31500002B40009009F1FF39CEF80090D3F828E0BEF1E5
S31500002B50000F16D0D3E90779C7F80890DF69C9F8DE
S31500002B600470DEF8047003F118094F4504BF1F6AAC
S31500002B70CEF804709D62DEF8009009F1FF39CEF8B8
S31500002B800090D6F80090D3F82CE0CE4588BFC6F862
S31500002B9000E00EEB8E0E02EB8E0EDEF804E0C3F8BC
S31500002BA008E0DEF80890C3F80C90C9F80480CEF867
S31500002BB00880D3F82CE00EEB8E0E02EB8E08C3F8DD
S31500002BC0148052F82E8008F1010842F82E80DAF8B7
S31500002BD000E0D4F80090D3F82C80DEF82CE0D9F889
S31500002BE00030F04588BF012043B32368DB68DB680B
S31500002BF0D3F804E071458ED2CCF800E000E0002066
S31500002C001C4B1B68002B18BF0120BDE8F087164B34
S31500002C101A681268FAB9184A1C68106818601748CA
S31500002C2014600268013202601A6812685AB94FF0DD
S31500002C30FF33DFF858C0CCF800305AE74FF0FF33C7
S31500002C40CCF80030DCE71B68DFF840C0DB681B68A7
S31500002C50CCF800304DE740F6F421094B094A0A4802
S31500002C60FFF72CF9881C0020D41C0020841C0020AF
S31500002C70001D0020781C0020D01C0020741C0020A1
S31500002C806C3E0000E8430000403E00006C1C002043
S31500002C90781D00202DE9F04782B00C9CDDE90A6A18
S31500002CA0BAF1000F00F0BD80002C00F0CF809846EE
S31500002CB0602301931546019A9A4240F0C0808946E6
S31500002CC005F18045013D0746002120460AEB8505B2
S31500002CD0019B25F0070500F0ADFDC4F830A0B9F161
S31500002CE0000F0FD009F1FF3C09F10F0304F1330E79
S31500002CF01CF9011F0EF8011F09B19C45F8D10023EC
S31500002D0084F84330052E00F2938004F10409484606
S31500002D10E662FFF755FAC6F1060604F11800FFF75A
S31500002D204FFA43463A46216BA661284624616462FF
S31500002D30FEF716FA2060FEF72DFA484A484E136849
S31500002D40013313603368002B3FD0464FE36A3A687D
S31500002D50002A34D0444D454945480A6801320A6084
S31500002D6002689A4238BF036003EB830305EB8303D3
S31500002D705B68A3609A68E260C2F80490C3F80890A2
S31500002D80E36A03EB830305EB830262619B00EA5867
S31500002D900132EA50FEF726FA3B6863B13268E36A0D
S31500002DA0D26A9A4207D24FF08052324B5A60BFF332
S31500002DB04F8FBFF36F8F204602B0BDE8F0873268B1
S31500002DC0D26A9A4298BF3460C4E734601368012B14
S31500002DD003D0E36A244D234FBDE7234D2F4605F16B
S31500002DE0780838461437FFF7DFF9B845F9D1DFF828
S31500002DF0BC80214F4046FFF7D7F93846FFF7D4F994
S31500002E001E48FFF7D1F91E48FFF7CEF91D48FFF718
S31500002E10CBF91D4BC3F800801C4B1F60E36A114FB2
S31500002E2099E740F243211A4B1A4A1B48FFF746F826
S31500002E3040F29631194B1A4A1748FFF73FF84FF4FC
S31500002E401371184B134A1448FFF738F84FF41171F1
S31500002E50154B104A1048FFF731F800BF8C1C0020B4
S31500002E60781D0020801C0020001D0020701C002002
S31500002E70841C002000ED00E0D81C0020BC1C0020B3
S31500002E80A81C0020901C0020D41C0020D01C002070
S31500002E90E43E000044440000403E00003C3F000089
S31500002EA02C440000203F0000043F0000EC1C0020E2
S31500002EB030B5002489B007AA06A905A8CDE90544BE
S31500002EC0FEF758F8DDE905231549CDE90132154825
S31500002ED02346079A0094FFF7DDFE28B100F074FC44
S31500002EE0012805D0013013D00F4B1B6809B030BD47
S31500002EF080F310884FF0FF350C490D4A0D4B0D60DD
S31500002F0010601C60FEF7F0F9074B1B6809B030BD76
S31500002F104FF40261084B094A0948FEF7CFFF00BF8C
S31500002F207C3F0000792A0000584400006C1C0020F9
S31500002F30801C0020881C0020843F00000C440000F8
S31500002F40403E0000024A136801331360704700BF19
S31500002F50681C00202DE9F047644C2368002B00F024
S31500002F60BD80FEF717F92368013B23602268002A1B
S31500002F7040F0A7805E4B1B68002B00F0A2805D49E5
S31500002F800B68002B00F0A8804FF0010C5A4E5B4BEB
S31500002F90DFF88CA15A4DC868D0F80CE0DEF828801E
S31500002FA0DEE90770B860DEF81C700EF1180947609C
S31500002FB0D8F80400484504BFDEF82000C8F804002D
S31500002FC0CEF82820D8F800000138C8F80000DEF84E
S31500002FD01480DEE90270B860DEF808700EF10409AC
S31500002FE04760D8F80400484504BFDEF80C00C8F86E
S31500002FF00400CEF81420D8F800000138C8F8000004
S31500003000D6F80080DEF82C00404588BF306000EB23
S31500003010800003EB80004068CEF80800D0F80880F6
S31500003020CEF80C80C8F80490C0F80890DEF82C00A2
S3150000303000EB800003EB8008CEF8148053F8208064
S3150000304008F1010843F82080DAF80000DEF82CE0E9
S31500003050C06A864588BFC5F800C0086800289AD1AE
S31500003060284B1A681268002A31D01A68264BD26893
S3150000307012681A60254F3E689EB14FF0010806E0BF
S31500003080FFF72CFD08B1C5F80080013E08D0236883
S31500003090002BF5D03B68013E03F101033B60F6D1FE
S315000030A03E602B686BB14FF08052194B5A60BFF3EC
S315000030B04F8FBFF36F8F0124FEF794F82046BDE8CB
S315000030C0F0870024FEF78EF82046BDE8F0874FF023
S315000030D0FF320D4B1A60CDE7094DCBE740F6930161
S315000030E00C4B0D4A0D48FEF7E9FE00BF681C002098
S315000030F08C1C0020BC1C0020841C0020001D00200D
S31500003100781C0020D41C00206C1C00207C1C002095
S3150000311000ED00E0983F0000FC430000403E000048
S31500003120781D002008B550B10D4B196881B91A6891
S3150000313001321A60FFF74EFCFFF70CFF38B94FF06B
S315000031408052084B5A60BFF34F8FBFF36F8F08BD95
S315000031504FF4A461044B054A0548FEF7AFFE00BFD5
S31500003160681C002000ED00E0503F000020440000F5
S31500003170403E0000014B1868704700BF881C0020C5
S31500003180054B1B680BB9FFF7A9BC044A002013685E
S3150000319001331360704700BF681C00207C1C0020B0
S315000031A01B4B1B681BB101221A4B1A60704710B5E6
S315000031B0184A194C13602368184903EB83029200DE
S315000031C08A58980042B9E3B1013B03EB830251F8F8
S315000031D022209800002AF6D0184401EB800C6146A4
S315000031E0DCF80420083152688A42CCF8042004BF77
S315000031F0DCF80C20CCF80420D168094A1160236061
S3150000320010BD40F63341074B074A0848FEF756FE05
S31500003210681C0020781C0020841C0020001D002053
S31500003220781D0020C43F0000D4430000403E00004B
S3150000323010B558B10C46094B19681831FEF7C4FF92
S315000032402046BDE810400121FFF7C4BB40F64B41C4
S31500003250034B044A0448FEF731FE00BF781D0020E8
S31500003260D43F0000BC430000403E0000F8B50346D2
S31500003270F8B108461146124C5A682568D4F800C0C1
S31500003280EA6126682568276805F1180495681836E6
S31500003290CCF820506E609460BB621A68002902F177
S315000032A001021A6018BF4FF0FF30BDE8F840FFF783
S315000032B091BB40F68141034B034A0448FEF7FEFDED
S315000032C0781D0020D43F00009C430000403E0000D3
S315000032D010B5C368DB68002B59D0D3E907019A6A99
S315000032E08160DC6903F118004C6051682B4C814207
S315000032F004BF196A51600021996211680139116091
S315000033002268AAB1264A5468DC61A168196248603D
S315000033101168A06001319A6211602249DA6A0B686D
S31500003320DB6A9A4231D901231F4A1846136010BD41
S315000033305A69D3E9020181609C68181D4C60516886
S315000033401A4C814204BFD968516000215961116845
S31500003350013911602168DA6A8A42154988BF2260FC
S3150000336002EB820201EB820252689A609468DC608A
S3150000337060609060DA6A02EB820201EB82005861BB
S315000033809200885801308850C7E7002010BD40F6EB
S31500003390B141084B084A0948FEF790FD681C002019
S315000033A0BC1C0020781D0020781C0020841C0020F6
S315000033B0001D0020E03F000080430000403E00006A
S315000033C0034A044B12681B68C0E90023704700BF1C
S315000033D0741C0020881C0020F8B550B30D4679B344
S315000033E00446FDF7D7FE2B68194A581C11681BD0F6
S315000033F0D4E90060DFF86CC0DCF80070BE4208D08B
S31500003400884206D8002301242B60FDF7EBFE2046F8
S31500003410F8BD0F1ABB42F5D95B1ADCF8001012682A
S3150000342003442B60C4E900120024FDF7DBFE2046AE
S31500003430F8BD40F62C51074B074A0848FEF73EFDFB
S3150000344040F62D51064B044A0448FEF737FD00BFEF
S31500003450881C0020F03F000068430000403E00004A
S31500003460FC3F0000741C00200122014B1A607047CB
S31500003470781C0020054B1B6833B1054B1868B0FA61
S3150000348080F040094000704701207047801C0020F2
S31500003490681C0020F0B5124C83B0FDF77BFE256852
S315000034A025B103B0BDE8F040FDF79CBE0D4E0E4FB2
S315000034B03046FEF779FE3846FEF776FE0B490C4B92
S315000034C000950A201F600E600A4B0C210A4AFEF77F
S315000034D079FF20600028E4D00849FFF721FAE0E7E9
S315000034E0441E0020641E0020501E00204C1E00209A
S315000034F0481E00207C1D0020C41D00200C4000003A
S315000035002DE9F047DFF884900546D9F800300F46DC
S31500003510DB68DC6804F104084046FEF76DFE94F8AB
S3150000352024305A070ED423F0010384F824302046B1
S31500003530236ABDE8F047184793421BD82046236A02
S3150000354098473546A3697A1BEE182CBF0121002146
S31500003550B74266602461EFD2AF4201D20029EDD0B6
S31500003560D9F800004146FEF72FFE2046236ABDE843
S31500003570F0471847044B41461868FEF725FE2046DB
S31500003580236ABDE8F0471847481E00204C1E00205D
S315000035902DE9F04F844D854E854C864FDFF8248209
S315000035A085B02B68D3F800A0BAF1000F00F0A9800F
S315000035B0DB68D3F800A0FFF7C5FCFFF7DBFD336837
S315000035C08146834240D88245306040F2B580002271
S315000035D02068AAEB0901FFF7D5F9FFF7BBFC38B95C
S315000035E04FF08053C8F80430BFF34F8FBFF36F8F8F
S315000035F00022206801A9FFF72DF80028D1D0019BF1
S31500003600002BF5DBDDF80C90D9F814301BB109F16D
S315000036100400FEF7F1FDFFF7ADFD336882469842E0
S3150000362024D3019BC6F800A0013B082BE0D8DFE8B5
S3150000363003F025254950492525495000DB684FF000
S31500003640FF311868FFF75CFF2B681A68002AF5D16E
S315000036503A68C6F800902A603B60FFF77BFCC7E734
S31500003660DB684FF0FF311868FFF74AFF2B681A68CE
S31500003670002AF5D13A683B602A60D2E799F824100F
S31500003680029BD9F8182041F0010C981889F824C03B
S315000036902CBF4FF0010C4FF0000C5045C9F8040048
S315000036A0C9F810903DD8AAEB03039A4223D84B07DA
S315000036B049D421F0010189F824104846D9F8203070
S315000036C0984795E799F8243023F0010389F82430C8
S315000036D08EE799F82420029B42F0010289F8242003
S315000036E0C9F81830002B57D053445345C9F8043055
S315000036F0C9F810901AD8386809F10401FEF764FD7C
S3150000370076E7FFF71FFCFFF735FD336881469842E1
S315000037109AD33B68C6F800901A68B2FA82F2520948
S3150000372056E7534502D9BCF1000FC0D0286809F10D
S315000037300401FEF749FD5BE7FFF70CFC49465046DE
S31500003740FFF7DEFE54E7029B13440AE0AAEB0303ED
S3150000375093421BD3D9F82030484698475B46D9F8A0
S31500003760182013EB020B2CBF01210021DA45C9F802
S3150000377004B0C9F81090E9D29A4501D20029E9D0DF
S31500003780286809F10401FEF71FFD96E7386809F17C
S315000037900401FEF719FD90E74FF45D71064B074AE9
S315000037A00748FEF78BFB00BF4C1E00203C1E002086
S315000037B0441E0020481E0020484000005C440000D3
S315000037C01C40000000ED00E010B588B0FFF762FE77
S315000037D0114B1B68CBB1002407AA06A905A8CDE9A1
S315000037E00544FDF7D5FB03222346059C009202946F
S315000037F0069C0A490A48079A0194FFF74BFA094BB7
S31500003800186010B1012008B010BD40F21911064B26
S31500003810064A0748FEF752FB441E0020704000008F
S3150000382091350000401E00207840000078440000DA
S315000038301C40000002440346934200D1704703F83F
S31500003840011BF9E70A44431E914200D1704710B5A7
S3150000385011F8014B914203F8014FF9D110BDFFFF5A
S315000038604275696C7420776974682052656E657359
S31500003870617320416476616E63656420466C657889
S3150000388069626C6520536F6674776172652050615A
S31500003890636B6167652076657273696F6E20352E7E
S315000038A0352E3000352E352E30000000000005057F
S315000038B0F8B500BFF8BC08BC9E467047F8B500BF17
S315000038C0F8BC08BC9E4670475465726D696E616CA3
S315000038D000000000284E554C4C2900002A2A205092
S315000038E04F5745525F43544C207265672049324317
S315000038F0207772697465206661696C65642121218F
S31500003900202A2A200D0A00005B4552525D20496E8E
S315000039102046756E6374696F6E3A20257328292CCC
S31500003920202573002A2A20525F4949435F4D41539F
S315000039305445525F5772697465204150492066614B
S31500003940696C6564202A2A200D0A000011FF000018
S315000039500E51000012FF0000028000000D0400005E
S3150000396008100000092100000F0500002A2A205235
S315000039705F4949435F4D41535445525F5265616407
S3150000398020415049206661696C6564202A2A200D11
S315000039900A00000077726974655F7074723A2D25AB
S315000039A0640D0A002A2A20446174612072656769E1
S315000039B0737465722C2049324320726561642066F7
S315000039C061696C6564202A2A200D0A002A2A204192
S315000039D06363656C20446174612072656769737402
S315000039E065722C20493243207772697465206661BE
S315000039F0696C6564202A2A200D0A00002A2A207094
S31500003A0070672044617461207265676973746572BA
S31500003A102C20493243207772697465206661696C8F
S31500003A206564202A2A200D0A000000002A2A205256
S31500003A305F4949435F4D41535445525F4F70656E30
S31500003A4020415049206661696C6564202A2A200D50
S31500003A500A0000002A2A20446576696365204944E5
S31500003A60207265672C20493243207772697465207D
S31500003A706661696C6564202A2A200D0A0000000030
S31500003A802A2A204465766963652049442072656167
S31500003A90642C202049324320726561642066616986
S31500003AA06C6564202A2A200D0A00000025640D0A90
S31500003AB0000000002A2A2047657420646576696341
S31500003AC065206964206661696C6564202A2A200D78
S31500003AD00A0000002A2A2053454E534F5220494ED1
S31500003AE04954204641494C4544202A2A200D0A00C3
S31500003AF00D0A52657475726E6564204572726F7236
S31500003B0020436F64653A203078257820200D0A001E
S31500003B104E6577205468726561640000756353567C
S31500003B20434E756D626572203C3D203300000000F7
S31500003B302E2E2F72612F6673702F7372632F726D24
S31500003B405F6672656572746F735F706F72742F70E3
S31500003B506F72742E630000002828285343425F5476
S31500003B60797065202A29202828307845303030455C
S31500003B70303030554C29202B2030783044303055A9
S31500003B804C2920292D3E494353522026202830789F
S31500003B90314646554C202929203D3D203000000065
S31500003BA07578437269746963616C4E657374696E86
S31500003BB06700000078517565756500002E2E2F721E
S31500003BC0612F6177732F4672656552544F532F46A6
S31500003BD072656552544F532F536F757263652F711B
S31500003BE0756575652E63000070785175657565009D
S31500003BF07852657475726E20213D20282028202871
S31500003C002042617365547970655F742029203020E5
S31500003C10292029007078537461746963517565753C
S31500003C20650000007853697A65203D3D2073697A06
S31500003C30656F66282051756575655F7420290000DB
S31500003C4070784E6577517565756500007848616EC8
S31500003C50646C6500212820282070764974656D54AF
S31500003C606F5175657565203D3D202828766F69641E
S31500003C70202A29302920292026262028207078511C
S31500003C80756575652D3E75784974656D53697A65F8
S31500003C9020213D2028205542617365547970655F67
S31500003CA07420292030552029202900002128202889
S31500003CB02078436F7079506F736974696F6E203D19
S31500003CC03D202820282042617365547970655F7411
S31500003CD020292032202920292026262028207078F5
S31500003CE051756575652D3E75784C656E67746820EF
S31500003CF0213D2031202920290000000021282028EC
S31500003D0020785461736B4765745363686564756C9A
S31500003D10657253746174652829203D3D202820284A
S31500003D202042617365547970655F742029203020C4
S31500003D30292029202626202820785469636B73546D
S31500003D406F5761697420213D203020292029000009
S31500003D50707851756575652D3E75784974656D5336
S31500003D60697A65203D3D203000000000212820288A
S31500003D7020707851756575652D3E70634865616480
S31500003D80203D3D202828766F6964202A2930292085
S31500003D9029202626202820707851756575652D3EC8
S31500003DA0752E7853656D6170686F72652E784D75E6
S31500003DB0746578486F6C64657220213D20282876EA
S31500003DC06F6964202A293029202920290000000053
S31500003DD028207078517565756520290021282028CE
S31500003DE020282070764275666665722029203D3D42
S31500003DF0202828766F6964202A2930292029202640
S31500003E002620282028207078517565756520292D73
S31500003E103E75784974656D53697A6520213D202881
S31500003E20205542617365547970655F74202920308E
S31500003E305520292029000000785461736B0000008A
S31500003E402E2E2F72612F6177732F4672656552543D
S31500003E504F532F4672656552544F532F536F7572E9
S31500003E6063652F7461736B732E630000282028200E
S31500003E7028202820707844656C61796564546173E4
S31500003E806B4C69737420292D3E75784E756D62658D
S31500003E90724F664974656D73203D3D20282055425A
S31500003EA0617365547970655F74202920302029205C
S31500003EB03F202820282042617365547970655F741D
S31500003EC0202920312029203A2028202820426173E9
S31500003ED065547970655F74202920302029202920B7
S31500003EE029000000707578537461636B42756666CD
S31500003EF0657220213D202828766F6964202A2930A2
S31500003F002900000070785461736B427566666572AD
S31500003F1020213D202828766F6964202A293029002F
S31500003F207853697A65203D3D2073697A656F662806
S31500003F30205443425F7420290000000075785072B7
S31500003F40696F72697479203C2028362900000000C8
S31500003F5075785363686564756C65725375737065BF
S31500003F606E646564203D3D2028205542617365548A
S31500003F707970655F742029203055000049444C450E
S31500003F80000000007852657475726E20213D20286D
S31500003F90202D31202900000075785363686564750B
S31500003FA06C657253757370656E64656420213D207F
S31500003FB028205542617365547970655F7420292005
S31500003FC0305500007578546F705072696F7269745D
S31500003FD07900000070784576656E744C69737400DC
S31500003FE07078556E626C6F636B6564544342000073
S31500003FF0707854696D654F75740000007078546967
S31500004000636B73546F57616974000000546D72518D
S31500004010000000007854696D657200002E2E2F7224
S31500004020612F6177732F4672656552544F532F4641
S3150000403072656552544F532F536F757263652F74B3
S31500004040696D6572732E63002820707854696D65FA
S31500004050722D3E7854696D6572506572696F644958
S315000040606E5469636B73203E2030202900000000E7
S31500004070546D7220537663007852657475726E00C3
S315000040800000000000005454522052454747455353
S3150000409000FFFFFF3031323334353637383941428D
S315000040A04344454657524954455F444154415F5243
S315000040B045474953544552006765745F64657669A0
S315000040C063655F696400FFFF696E69745F73656E9F
S315000040D0736F72006D6561737572655F656E61629F
S315000040E06C655F7061796C6F616400FF0A000000A7
S315000040F0140000FF6E65775F746872656164305FF7
S31500004100656E74727900FFFF00000000A086010052
S315000041105E000000010C0001020300000000000028
S3150000412000000000950D0000000000003041000076
S315000041300101031C1C00000000000000000000003C
S315000041400E0000004C41000000000000000C0100C1
S3150000415008010000000C010009010000000C01002C
S315000041600A010000040C00000B0100000000000022
S315000041700C010000040C00000D010000000C010001
S3150000418000030000040C000001030000040C000002
S3150000419002030000040C00000303000000040107F2
S315000041A0000400000004010701040000040C0000E4
S315000041B007040000040C00000804000073007400EB
S315000041C075007600000000000000000000000000FE
S315000041D000000000000000000000000000000000D9
S315000041E000000000000000000000000000000000C9
S315000041F000000000000000000000000000000000B9
S3150000420000000000000000000000000000000000A8
S315000042100000000000000000000000000000000098
S315000042200000000000000000000000000000000088
S315000042300000000000000000000000000000000078
S315000042400000000000000000000000000000000068
S315000042500000000000000000000000000000000058
S315000042600000000000000000000000000000000048
S3150000427000000000000000000000000076506F7291
S315000042807445786974437269746963616C00FFFFF1
S3150000429076506F7274456E746572437269746963A1
S315000042A0616C00FF76506F727453564348616E64BA
S315000042B06C65725F4300FFFF020403040404FFFF02
S315000042C001000200080010007651756575654164AD
S315000042D064546F52656769737472790078517565B5
S315000042E0756553656D6170686F726554616B6500C5
S315000042F07851756575655265636569766500FFFF7A
S3150000430078517565756547656E6572696353656E47
S315000043106400FFFF78517565756543726561746564
S31500004320436F756E74696E6753656D6170686F7201
S315000043306553746174696300785175657565476581
S315000043406E657269634372656174655374617469FD
S315000043506300FFFF78517565756547656E6572691F
S3150000436063526573657400FF785461736B436865C7
S31500004370636B466F7254696D654F757400FFFFFF7E
S31500004380785461736B52656D6F766546726F6D45D5
S3150000439076656E744C69737400FFFFFF7654617323
S315000043A06B506C6163654F6E4576656E744C6973D0
S315000043B074526573747269637465640076546173CC
S315000043C06B506C6163654F6E4576656E744C6973B0
S315000043D07400FFFF765461736B53776974636843A7
S315000043E06F6E7465787400FF785461736B496E6301
S315000043F072656D656E745469636B00FF7854617302
S315000044006B526573756D65416C6C00FF7654617314
S315000044106B53746172745363686564756C6572007E
S31500004420765461736B44656C617900FF70727649EE
S315000044306E697469616C6973654E65775461736BF7
S3150000444000FFFFFF785461736B43726561746553B7
S31500004450746174696300FFFF050000007072765096
S31500004460726F636573735265636569766564436FDE
S315000044706D6D616E647300FF7854696D6572437289
S315000044806561746554696D65725461736B00FFFFF5
S315000044901000000000000000017A5200027C0E01AC
S315000044A01B0C0D00100000001800000000000000AA
S311000044B0100000000000000000000000EA
S311000044BC0D0100012D02000005020000A9
S3150100A100FFFFFFFFFFFFFFFFFFFFFFFFFFFFFFFF58
S3090100A134FFFFFFFF24
S3150100A200FFFCFFFFFFFFFFFFFFFFFFFFFFFFFFFF5A
S3150100A210FFFFFFFFFFFFFFFFFFFFFFFFFFFFFFFF47
S3150100A220FFFFFFFFFFFFFFFFFFFFFFFFFFFFFFFF37
S3150100A230FFFFFFFFFFFFFFFFFFFFFFFFFFFFFFFF27
S3150100A240FFFFFFFFFFFFFFFFFFFFFFFFFFFFFFFF17
S3150100A250FFFFFFFFFFFFFFFFFFFFFFFFFFFFFFFF07
S3150100A260FFFFFFFFFFFFFFFFFFFFFFFFFFFFFFFFF7
S3150100A270FFFFFFFFFFFFFFFFFFFFFFFFFFFFFFFFE7
S3150100A280F8F8FFFFFFFFFFFFFFFFFFFFFFFFFFFFE5
S3150100A290FFFFFFFFFFFFFFFFFFFFFFFFFFFFFFFFC7
S3150100A2A0FFFFFFFFFFFFFFFFFFFFFFFFFFFFFFFFB7
S3150100A2B0FFFFFFFFFFFFFFFFFFFFFFFFFFFFFFFFA7
S3150100A2C0FFFFFFFFFFFFFFFFFFFFFFFFFFFFFFFF97
S705000020BD1D
