:10000000280600200D0B000059090000090B000014
:10001000090B0000090B0000090B0000090B000090
:10002000000000000000000000000000090B0000BC
:10003000090B000000000000090B0000090B000084
:10004000DD060000000000000000000000000000CD
:1000500000000000000000000000000000000000A0
:100060000000000000000000000000000000000090
:100070000000000000000000000000000000000080
:100080000000000000000000000000000000000070
:100090000000000000000000000000000000000060
:1000A0000000000000000000000000000000000050
:1000B0000000000000000000000000000000000040
:1000C0000000000000000000000000000000000030
:1000D0000000000000000000000000000000000020
:1000E0000000000000000000000000000000000010
:1000F0000000000000000000000000000000000000
:1001000000000000000000000000000000000000EF
:1001100000000000000000000000000000000000DF
:1001200000000000000000000000000000000000CF
:1001300000000000000000000000000000000000BF
:1001400000000000000000000000000000000000AF
:10015000000000000000000000000000000000009F
:10016000000000000000000000000000000000008F
:10017000000000000000000000000000000000007F
:10018000000000000000000000000000000000006F
:10019000000000000000000000000000000000005F
:1001A000000000000000000000000000000000004F
:1001B000000000000000000000000000000000003F
:1001C0000348044B834202D0034B03B118477047E6
:1001D000080000200800002000000000064B07492E
:1001E000C91A891048BF0131491003D0044B0BB123
:1001F00001481847704700BF080000200800002091
:100200000000000010B5064C237843B9FFF7D8FF73
:10021000044B13B10448AFF300800123237010BDD9
:100220002800002000000000C40D000008B5054BA8
:100230001BB105490548AFF30080BDE80840FFF752
:10024000CDBF00BF000000002C000020C40D000046
:1002500008B500F05DF808BD022800D0704708B569
:100260000249034800F07EF908BD00BFAC0C000055
:1002700044000020EFF31081012383F31088074B23
:100280001B6823B9064B0022DA704022DA70034A59
:1002900013680133136081F31088704794000020C5
:1002A000000D0840EFF31083012282F31088094A01
:1002B00012681AB107490A68013A0A60054A1268C9
:1002C00022B9054A0021D1708021D17083F31088B2
:1002D000704700BF94000020000D084010B50024B6
:1002E00023460CB1184610BD084B5968186800F039
:1002F0006FF903460028F5D1044B186800F0AEF9F9
:1003000003460028EED10134EBE700BF8C0C00005F
:1003100008B5FFF7E3FFFFF7ADFF0C4AD2F8203135
:1003200023F0011323F4404343F00403C2F82031C7
:10033000D2F81C3123F0011323F4404343F00503AA
:10034000C2F81C31FFF7AEFF08BD00BF000808402F
:1003500008B5FFF78FFF0C4AD2F8203123F00113C4
:1003600023F4404343F00503C2F82031D2F81C3196
:1003700023F0011323F4404343F00403C2F81C317B
:10038000FFF790FF08BD00BF0008084008B5FFF761
:100390005FFF002008BDFFFFEFF31081012383F30F
:1003A0001088074B1B6823B9064B0022DA704022E5
:1003B000DA70034A13680133136081F310887047C1
:1003C00094000020000D0840EFF31083012282F317
:1003D0001088094A12681AB107490A68013A0A6086
:1003E000054A126822B9054A0021D1708021D170D6
:1003F00083F31088704700BF94000020000D084070
:1004000010B411F4803F0ED0030A0C4A1B0153FABA
:1004100080F352F8234024F4803442F8234021F43E
:10042000803442F82340030A1B0153FA80F0034B47
:1004300043F820105DF8044B704700BF00080840E7
:10044000F8B50646002569E0374B93F8BB24012335
:10045000A340DFB2134238D004F12003334A12F82C
:100460001330DB093ED00134022C56D8736803EBFD
:10047000C50291882E4A32F814209142F3D153F8E4
:10048000353003F0F853B3F1807FDDD0B3F1106F56
:10049000DAD0254B93F8BB240123A340DFB21342EB
:1004A0002DD104F12003214A12F81330DB09DAD0F0
:1004B00004F1200112F8113023F0800302F811300A
:1004C0000121C82000F0F6F9CDE7012000F0F0FA94
:1004D000154A92F8BB343B4382F8BB34012000F04C
:1004E000B3FAB9E704F1200112F8113043F08003A8
:1004F00002F811300121C82000F0DCF9B3E7012037
:1005000000F0D6FA084A92F8BB3423EA070382F8CF
:10051000BB34012000F098FAC3E701353388AB42C1
:1005200001D90024A0E7F8BD00E0014000300840F8
:10053000A00D000038B50546FFF782FFFFF72CFF3E
:10054000002409E06B6803EBC40253F83410908870
:10055000FFF756FF0134A4B22B88A342F2D8FFF76D
:1005600033FF38BD08B5034B03600846FFF7E2FFD1
:10057000002008BD54524F500B4B00F1C00253F8FD
:10058000221021F4803143F8221053F82230BFF3B7
:100590005F8F00F01F024009012393406030034A3F
:1005A00042F82030704700BF0060004000E100E0EA
:1005B00010B50446FFF7E0FF04F01F0264090123B1
:1005C0009340024A42F8243010BD00BF00E100E031
:1005D00030B591F9023003711D4AC03352F82340FF
:1005E000002542F823508B688360CB68C36091F884
:1005F00000E080F805E002F80E5091F804C04FEAE0
:100600000C1C5FFA8CFC4B79DB01DBB243EA0C0378
:1006100091F803C04CEA030302F80E3090F904305D
:10062000C03342F8234090F90420AA420BDB4B78F8
:100630001B01DBB202F1604101F5614181F8003339
:10064000044B43F82200044B0360002030BD00BF80
:1006500000600040980000205543490008B590F91B
:100660000400FFF7A5FF002008BDFFFF90F904304C
:1006700003F01F015B0901228A402033044941F83D
:100680002320BFF34F8FBFF36F8F0020704700BF51
:1006900000E100E08160C26000207047034690F9ED
:1006A0000420002A12DB02F01F00520901218140C0
:1006B0002032084840F82210BFF34F8FBFF36F8FEE
:1006C00093F90410044A002042F821000020186029
:1006D000704700BF00E100E09800002030B583B013
:1006E000EFF30384C4F30804103C64B2174B53F8CF
:1006F00024305A7916498A5C02F00302032A21D079
:100700000A4604F1C00152F8210020F4803042F87A
:10071000210052F82120BBB100259A682AB15979ED
:100720000191DB680093684690474DB1084BC03497
:1007300053F8242022F4803243F8242053F8243044
:1007400003B030BD0125E8E70025EEE79800002062
:1007500000600040024B012283F88024704700BFF4
:1007600000E00140064B93F826101A6AC2F30262B9
:10077000044B53F82130D340034A1360704700BF45
:1007800000E00140080000202002002008B5084BCE
:10079000084A1A60084A5A604FF400429A60074AB1
:1007A000DA6000221A61064A5A61FFF7DBFF08BDD2
:1007B00008000020002D310100127A0000366E0181
:1007C000AA21EF0908B50A4B012283F81C2103F581
:1007D0000053084A1A62052283F82620FFF7C2FF59
:1007E000054BF1221A7300221A72F0221A7308BD07
:1007F00000C00140211202210020004038B51E4BEC
:100800004AF20352A3F8FE23A3F500530122A3F8F2
:1008100004211A4BB3F804319BB2002BF9D1174BCA
:100820000122A3F80021FFF7B1FF134C002584F843
:100830001354092384F8A230FFF78CFF84F8365054
:100840000D4B93F83C3013F0010FF9D00A4B43F2F3
:1008500012121A85002283F82A20074B93F83C30A5
:1008600013F0200FF9D0FFF7ADFF034B4FF42542F3
:10087000A3F8FE2338BD00BF00E0014000C00140E6
:1008800010B50024064B83F82840012000F010F931
:10089000044B83F8BB44012000F0D6F810BD00BF24
:1008A0000030084000E00140A0F101000028FBD129
:1008B0007047FFFF08B500FB01F1204B1B68204883
:1008C000B0FBF3F0CA0E4B015B1A62F1000292001A
:1008D00042EA93729B005B1842F10002D20042EAA6
:1008E0005372DB004FF0FF3C9C454FF0000C7CEB5B
:1008F000020C06D3B3FBF0F3980808B1FFF7D4FF5E
:1009000008BD8000B1FBF0F1CA0E4B015B1A62F129
:100910000002920042EA93729B005B1842F10002CF
:10092000D20042EA5372D8004FF0FF3383424FF0B7
:1009300000039341E1D24FF0FF30DFE720020020B7
:1009400000CA9A3B08B5034B53F8203003B19847CF
:1009500008BD00BF5C00002038B50D4BB3F8202166
:10096000B3F84051ADB21540002401E00134E4B2C7
:100970000D2C08D825FA04F313F0010FF6D0204609
:10098000FFF7E0FFF2E7024BA3F8305138BD00BF9C
:100990000060004000B585B0032000F089F8254BC9
:1009A0006FF0FF029A644FF0FF33019302930393B9
:1009B000002300E001335F2B14D81F4A32F81320C4
:1009C000002AF7D05A0903F01F0C04A901EB820298
:1009D00052F80C1C012000FA0CF021EA000142F848
:1009E0000C1CE7E700230DE004AA02EB830252F897
:1009F0000C2C124941F8232003F1A000104941F8C2
:100A000020200133022BEFD9032000F01DF8002332
:100A100000E001335F2B0AD8074A32F81320002A7E
:100A2000F7D003F1C001074840F82120F1E705B0F5
:100A30005DF804FB00800040E00C00007080004086
:100A400000E100E000600040EFF31082012383F337
:100A50001088144B33F810309BB23BB1114931F878
:100A600010309BB2013B9BB221F810300D4B33F894
:100A700010309BB293B910B40B49B1F8FE339BB25E
:100A80000A4C34F8100043F4254323EA0003A1F88C
:100A9000FE3382F310885DF8044B704782F31088B0
:100AA000704700BF1802002000E00140BC0D0000AC
:100AB00010B4EFF31081012383F310880F4B33F848
:100AC00010309BB263B90E4AB2F8FE339BB20D4CA4
:100AD00034F810C043EA0C0343F42543A2F8FE3374
:100AE000064A32F810309BB201339BB222F8103024
:100AF00081F310885DF8044B704700BF1802002096
:100B000000E00140BC0D000000BE704708B500F0D9
:100B100003F8FFF73BFCFEE738B52C4B4FF47002AF
:100B2000C3F888202A4C9C600020FFF795FBFFF754
:100B300065FE0120FFF790FB2368A3F5806383F334
:100B40000A882448244A121A002100F056F8234843
:100B5000234A121A234900F058F8234D234BED1A6B
:100B6000AD10002404E0214B53F8243098470134A1
:100B7000AC42F8DBFFF7F6FDFFF782FE0320FFF73C
:100B800097FF002307E003F10801194A4FF6FF70B1
:100B900022F811000133052BF5D90320FFF754FF8C
:100BA0000320FFF785FF134B00245C609C60DC6032
:100BB0001C610320FFF748FF0220FFF74DFBFFF702
:100BC000E9FE204600F018F838BD00BF00ED00E057
:100BD0000000000028000020240200200000002067
:100BE00008000020F00D000004000020000000209C
:100BF000000D084000000E40704702440346934237
:100C000000D1704703F8011BF9E70A44431E9142E3
:100C100000D1704710B511F8014B914203F8014F14
:100C2000F9D110BD4275696C7420776974682052DF
:100C3000656E6573617320416476616E63656420DF
:100C4000466C657869626C6520536F667477617273
:100C500065205061636B6167652076657273696FAB
:100C60006E20352E352E3000352E352E300000000A
:100C700000000505F8B500BFF8BC08BC9E467047EB
:100C8000F8B500BFF8BC08BC9E4670474C00002079
:100C9000980C0000A80D0000010C000103000000EA
:100CA00051030000000000000000000005000000EB
:100CB000B80C000000000000000C0100080100005A
:100CC0000040000005020000000C010000030000CD
:100CD000040C000007040000040C000008040000DD
:100CE0000200000000000000000000000000000002
:100CF00000000000000000000000000000000000F4
:100D000000000000000000000000000000000000E3
:100D100000000000000000000000000000000000D3
:100D200000000000000000000000000000000000C3
:100D300000000000000000000000000000000000B3
:100D400000000000000000000000000000000000A3
:100D50000000000000000000000000000000000093
:100D60000000000000000000000000000000000083
:100D70000000000000000000000000000000000073
:100D80000000000000000000000000000000000063
:100D90000000000000000000000000000000000053
:100DA000020403040404FFFFD10500005D060000F7
:100DB0006D060000950600009D060000010002007F
:100DC000080010001000000000000000017A52002E
:100DD000027C0E011B0C0D0010000000180000002A
:100DE00000000000100000000000000000000000F3
:080DF0002D02000005020000C5
:020000040100F9
:10A10000FFFFFFFFFFFFFFFFFFFFFFFFFFFFFFFF5F
:04A13400FFFFFFFF2B
:10A20000FFFDFFFFFFFFFFFFFFFFFFFFFFFFFFFF60
:10A21000FFFFFFFFFFFFFFFFFFFFFFFFFFFFFFFF4E
:10A22000FFFFFFFFFFFFFFFFFFFFFFFFFFFFFFFF3E
:10A23000FFFFFFFFFFFFFFFFFFFFFFFFFFFFFFFF2E
:10A24000FFFFFFFFFFFFFFFFFFFFFFFFFFFFFFFF1E
:10A25000FFFFFFFFFFFFFFFFFFFFFFFFFFFFFFFF0E
:10A26000FFFFFFFFFFFFFFFFFFFFFFFFFFFFFFFFFE
:10A27000FFFFFFFFFFFFFFFFFFFFFFFFFFFFFFFFEE
:10A28000F8F8FFFFFFFFFFFFFFFFFFFFFFFFFFFFEC
:10A29000FFFFFFFFFFFFFFFFFFFFFFFFFFFFFFFFCE
:10A2A000FFFFFFFFFFFFFFFFFFFFFFFFFFFFFFFFBE
:10A2B000FFFFFFFFFFFFFFFFFFFFFFFFFFFFFFFFAE
:10A2C000FFFFFFFFFFFFFFFFFFFFFFFFFFFFFFFF9E
:0400000300000B0DE1
:00000001FF
