S0120000554152545F5052494E542E73726563EA
S31500000000580600208D0E0000F50C0000890E000039
S31500000010890E0000890E0000890E0000890E00007E
S31500000020000000000000000000000000890E000033
S31500000030890E000000000000890E0000890E0000F5
S315000000406D080000E1070000FD08000045090000FA
S31500000050000000000000000000000000000000009A
S31500000060000000000000000000000000000000008A
S31500000070000000000000000000000000000000007A
S31500000080000000000000000000000000000000006A
S31500000090000000000000000000000000000000005A
S315000000A0000000000000000000000000000000004A
S315000000B0000000000000000000000000000000003A
S315000000C0000000000000000000000000000000002A
S315000000D0000000000000000000000000000000001A
S315000000E0000000000000000000000000000000000A
S315000000F000000000000000000000000000000000FA
S3150000010000000000000000000000000000000000E9
S3150000011000000000000000000000000000000000D9
S3150000012000000000000000000000000000000000C9
S3150000013000000000000000000000000000000000B9
S3150000014000000000000000000000000000000000A9
S315000001500000000000000000000000000000000099
S315000001600000000000000000000000000000000089
S315000001700000000000000000000000000000000079
S315000001800000000000000000000000000000000069
S315000001900000000000000000000000000000000059
S315000001A00000000000000000000000000000000049
S315000001B00000000000000000000000000000000039
S315000001C00348044B834202D0034B03B118477047E0
S315000001D0180000201800002000000000064B074908
S315000001E0C91A891048BF0131491003D0044B0BB11D
S315000001F001481847704700BF18000020180000206B
S315000002000000000010B5064C237843B9FFF7D8FF6D
S31500000210044B13B10448AFF300800123237010BDD3
S315000002203800002000000000B811000008B5054B9A
S315000002301BB105490548AFF30080BDE80840FFF74C
S31500000240CDBF00BF000000003C000020B811000038
S3150000025008B50E4B1B8803B9FEE70D490D4800F0A3
S31500000260E1F800B1FEE707220B490A4800F090F8D2
S3150000027000B1FEE701220949064800F089F800B1FD
S31500000280FEE70448BDE8084000F01CB8AC110000C9
S315000002900C1000005C00002004000020000000207C
S315000002A0022800D070470249024800F051BC00BF46
S315000002B0401000005400002008B5FFF7C9FF0020D9
S315000002C008BD00BF03460020012110B41A6A586019
S315000002D09070DA692C4C92F905204FEA521C02F014
S315000002E01F0201FA02F20CF1200C44F82C20BFF395
S315000002F04F8FBFF36F8FDA6992F90B204FEA521CCA
S3150000030002F01F0201FA02F20CF1200C44F82C2034
S31500000310BFF34F8FBFF36F8FDA6992F907204FEA69
S31500000320521C02F01F0201FA02F20CF1200C44F8F2
S315000003302C20BFF34F8FBFF36F8FDA6992F9092034
S315000003404FEA521C02F01F0201FA02F20CF1200CD5
S3150000035044F82C20BFF34F8FBFF36F8FEFF3108459
S3150000036081F31088DB69094A93F800C04FF0004317
S31500000370516823FA0CF30B435360536884F31088D7
S315000003805DF8044B704700BF00E100E00040084004
S3150000039010B4046AA37803F07B03A3708378046A1D
S315000003A003F00303D21A0B44C0E90332A37843F0E7
S315000003B08003A370837803F00303022B06D0036A3D
S315000003C00A780020DA705DF8044B70470B88026AE1
S315000003D043F47E43D38100205DF8044B704700BF91
S315000003E0F0B5846A85B005460F4694466E46B4B1AC
S315000003F094E80F0086E80F00EB6920461B78A7609B
S31500000400236084F804C0EB6AE3606B6A9847AC6AC1
S315000004101CB196E80F0084E80F0005B0F0BD344625
S31500000420EAE700BF012203460878824012F0060F71
S3150000043005D0CA6952681278120700F1CF810022EE
S315000004402DE9F041012500F5800000F58C500002F1
S31500000450C3E907101A704E6998785E628E6965F373
S315000004600100C3E90A2698704878D34C904214BF1D
S315000004702E460226987866F30100987091F90BC013
S3150000048091F80AE04FEA5C100CF01F06203005FADE
S3150000049006F644F82060BFF34F8FBFF36F8FC7484F
S315000004A00CF1C00650F8267062F3104740F826702B
S315000004B050F82660C24E4FEA0E1E04EB0C075FFA98
S315000004C08EFE87F800E346F82C3091F905C091F8C6
S315000004D004E04FEA5C170CF01F08203705FA08F80D
S315000004E044F82780BFF34F8FBFF36F8F0CF1C0071F
S315000004F050F8278062F3104840F8278050F827709C
S315000005004FEA0E1E04EB0C075FFA8EFE87F800E337
S3150000051046F82C3091F907C091F806E04FEA5C17CF
S315000005200CF01F08203705FA08F844F82780BFF3B7
S315000005304F8FBFF36F8F0CF1C00750F8278062F31F
S31500000540104840F8278050F827704FEA0E1E04EB3B
S315000005500C075FFA8EFE87F800E346F82C3091F917
S3150000056009C091F808E04FEA5C170CF01F08203725
S3150000057005FA08F844F82780BFF34F8FBFF36F8F53
S315000005800CF1C00750F8278062F3104840F8278026
S3150000059050F827004FEA0E10C0B2644484F80003F6
S315000005A046F82C30EFF3108685F310884FF000459F
S315000005B00C788448E540446824EA050444604068B1
S315000005C086F3108840F219201C6AA2701C6A2271F8
S315000005D01C6A62721C6AA2721C6AE2721C6A6283DC
S315000005E00A7820FA02F2D00702D540201A6AD0749F
S315000005F0062440F21922186A04770878C240D20706
S3150000060000F1CA80CA7848788C78D200032842EA7A
S31500000610041200F0DF8000280CBFE220F2201C6AE2
S31500000620D2B222701A6A9071CC69227B082A00F035
S31500000630CD80186A520002F00202427300256278E9
S31500000640A078D201400100F02000D2B20243186A1D
S315000006500572207802380128186A40F2A280D2B2C8
S31500000660C27160681A6A847854704578147865F3A4
S3150000067001041470C4789474D479007804F0A30447
S3150000068000F05C002043D0710020C3E90300C3E9F9
S315000006900500DC69494A94F90540CD6904F1C001B9
S315000006A052F8216095F800C060F3104642F82160C8
S315000006B00CF0030C52F82110BFF35F8F4FF0010EC0
S315000006C06109890004F01F0401F1604101F56141EF
S315000006D00EFA04F4C1F880410C60D96991F90B4017
S315000006E004F1C00152F8216060F3104642F821601F
S315000006F052F82110BFF35F8F6109890004F01F04CF
S3150000070001F160410EFA04F401F56141C1F880413E
S315000007100C60D96991F9074004F1C00152F82160D3
S3150000072060F3104642F8216052F82110BFF35F8F44
S315000007306109890004F01F0401F160410EFA04F416
S3150000074001F56141C1F880410C60D96991F9091040
S3150000075001F1C00452F8246060F3104642F82460A8
S3150000076052F82420BFF35F8F4A09920001F01F015F
S3150000077002F160420EFA01F102F56142C2F88011FF
S3150000078011601A6A4CF0700C82F802C069890E4A30
S3150000079019815A60BDE8F0814FF478401A6A908258
S315000007A030E7FF2545702078022808BF42F0100286
S315000007B0186AD2B2C27167E700E100E0006000404B
S315000007C0C800002000400840554943530A201A6AD1
S315000007D0507333E7F22042F0400220E703207047CF
S315000007E0EFF30383103B1F4A5BB203F1C00152F8DB
S315000007F0210020F4803042F8210052F821201A4AC4
S3150000080052F82300C3691B6983B1036903B17047BA
S31500000810026A0021937803F07F0343F00403937088
S31500000820436AC160C3B18022FFF7DABD0369026A79
S31500000830002BEED08378C16803F00303022B0CD0A3
S315000008400B78D3708278D0E9031302F003029B1A67
S315000008501144C0E90313D9E770470B8843F47E437C
S31500000860D381EFE700600040C800002010B582B0D9
S31500000870EFF30383103B1F4A5BB203F1C00152F84A
S31500000880210020F4803042F8210052F821201A4A33
S3150000089052F82340A27802F00303022B236A0CBF0E
S315000008A0198A5979A3690CBFC1F30801C9B201912C
S315000008B043B9636AB3B10422204602B0BDE81040D2
S315000008C0FFF78EBD02F0030201A9606900F05CFB30
S315000008D0D4E90521A37803F003031A44C91AC4E92D
S315000008E0052109B102B010BD636A002BFAD00122BE
S315000008F0E2E700BF00600040C800002010B5EFF33B
S3150000090003830E4A103B5CB252F82400026A9378C5
S3150000091003F07B039370436A1BB102220021FFF7A9
S315000009205FFD074A04F1C00352F8231021F4803119
S3150000093042F8231052F8233010BD00BFC800002033
S315000009400060004010B5EFF303831A4A103B5CB217
S3150000095052F82400837803F00303022B036A0CBFCA
S31500000960198A597993F804C00CBFC1F30801C9B2BA
S315000009701CF0100F0CF0380206D093F81CC01CF0C7
S31500000980010F08BF42F0400293F804C00CF0C70CF8
S3150000099083F804C0436A0BB1FFF722FD064A04F14F
S315000009A0C00352F8231021F4803142F8231052F884
S315000009B0233010BDC8000020006000402DE9F84F2C
S315000009C00388DBB182464FF0000B4FF00109DFF8D8
S315000009D0D0800024304D4FEACB07DAF8043035F8E2
S315000009E0022BD919898891420AD00134032CF4D1FB
S315000009F0BAF800300BF1010B5B45EAD8BDE8F88F79
S31500000A00DB5909FA04F603F0B853B3F1807FF6B266
S31500000A1098F8BB3413D0334231D1204A04F1200672
S31500000A2012F81630DB09E0D012F81630012123F057
S31500000A308003C82002F8163000F030F9D5E73342BB
S31500000A4011D0164A04F1200112F81130DB09CCD17D
S31500000A5012F81130C82043F0800302F8113001214A
S31500000A6000F01CF9C1E7012000F0E4F998F8BB3466
S31500000A700120334388F8BB3400F0ACF9E1E70120EC
S31500000A8000F0D8F998F8BB34012023EA060388F869
S31500000A90BB3400F09FF9C0E79C110000003008400D
S31500000AA000E00140F8B50646FFF788FFEFF3108235
S31500000AB0012383F31088234F3B681BB92249CB706F
S31500000AC04023CB703B6801333B6082F31088338848
S31500000AD023B300211D4D08E01B01134445F82340B4
S31500000AE0328801318BB29A4218D9736853F8314073
S31500000AF003EBC1029288E0034FEA1223D2B2EBD590
S31500000B0002EB031055F820E024F4803C2EF4803EDE
S31500000B1045F820E01B0145F820C0DEE7EFF3108220
S31500000B20012383F310883B6813B13B68013B3B60AC
S31500000B303B681BB980200449CB70C87082F31088CB
S31500000B40F8BD00BFC4000020000D084000080840A2
S31500000B5008B5034B03600846FFF7A4FF002008BD55
S31500000B6054524F50064B074993F826001A6A51F81B
S31500000B702030C2F302620449D3400B60704700BFC5
S31500000B8000E0014018000020500200204AF2035005
S31500000B9001232D492D4A2DE9F043A1F8FE03A2F8C1
S31500000BA00431B2F804319BB2002BFAD14FF4004461
S31500000BB001212748274D846004F19874C0E9033366
S31500000BC004F52D44A2F8001104601F4A224C456129
S31500000BD092F826504460146A82F8801482F83630FF
S31500000BE092F83C30D907FBD542F21174002316491E
S31500000BF0148582F82A3091F83C309B06FBD50522F5
S31500000C004FF00109F12500244FF0F00E4FF4254C6A
S31500000C10DFF83880114F88F81C910F6281F8262082
S31500000C2091F826200E4B50F82220086A0D4EC0F38C
S31500000C300260C24032601D731C7283F80CE0A1F89A
S31500000C40FEC3BDE8F08300BF00E0014000C00140E4
S31500000C501800002000C2EB0B00127A0021120221BC
S31500000C60002000405002002010B50024064B012051
S31500000C7083F8284000F0DEF8044B012083F8BB44DB
S31500000C80BDE8104000F0A6B80030084000E0014082
S31500000C90A0F101000028FBD1704700BF4FF47A7322
S31500000CA010B400FB01F1114C114A2468B2FBF4F2B6
S31500000CB0A1FB03043CB9B0FBF2F0800860B15DF81B
S31500000CC0044BFFF7E5BF9200B1FBF2F1A1FB031362
S31500000CD02BB908460028F2D15DF8044B70474FF057
S31500000CE0FF3C5DF8044B6046FFF7D2BF5002002080
S31500000CF000CA9A3B70B500240B4B0C4EB3F820216A
S31500000D00B3F84051ADB2154025FA04F3DB0704D51C
S31500000D1056F82430E0B203B1984701340E2CF3D1D3
S31500000D20014BA3F8305170BD006000408C000020DC
S31500000D3030B5032085B000F07DF86FF0FF054FF069
S31500000D40FF31204C002322464FF0010E1E488564D9
S31500000D50CDE90111039104F1C00532F8020F5909DA
S31500000D6060B104A800EB810151F80C0C03F01F0CD4
S31500000D700EFA0CFC20EA0C0041F80C0C954203F12B
S31500000D800103EAD10199114B0F4A03201167C3F8F9
S31500000D90801202995167C3F8841203999167C3F8C8
S31500000DA0881200F017F80023094834F8022F03F1DF
S31500000DB0C00101330AB140F82120A542F5D105B0A2
S31500000DC030BD00BFDA1000000080004000E100E006
S31500000DD000600040EFF31081012383F31088124B6B
S31500000DE033F8102092B22AB133F81020013A92B2A9
S31500000DF023F8102033F810309BB293B910B40B4A85
S31500000E000B4CB2F8FE3334F810009BB243F4254382
S31500000E1023EA0003A2F8FE3381F310885DF8044B41
S31500000E20704781F3108870474802002000E00140B7
S31500000E30A411000030B4EFF31081012383F310886E
S31500000E400E4A32F810309BB26BB90D4C0D4DB4F80A
S31500000E50FE3335F810C09BB243EA0C0343F4254336
S31500000E609BB2A4F8FE3332F8103001339BB222F85D
S31500000E70103081F3108830BC704700BF4802002054
S31500000E8000E00140A411000000BE704708B500F064
S31500000E9003F8FFF711FAFEE74FF4700270B52A4B1C
S31500000EA02A4CC3F8882000209C60FFF7F9F9FFF769
S31500000EB06DFE0120FFF7F4F92368A3F5806383F341
S31500000EC00A882348234A0021121A00F055F82248BE
S31500000ED0224A2349121A00F057F8224D224B5B1B77
S31500000EE0002B07DD00249E1055F8043B013498477B
S31500000EF0A642F9DCFFF736FEFFF7B6FE0320FFF742
S31500000F0099FF4FF6FF720024184B03201A825A826B
S31500000F109A82DA821A835A83FFF75CFF0320FFF76F
S31500000F2089FF134B03205C609C60DC601C61FFF74B
S31500000F3051FF0220FFF7B4F9FFF7FAFE2046BDE89D
S31500000F40704000F017B800BF00ED00E000000000A0
S31500000F503800002054020020000000201800002065
S31500000F60BC1100001000002014000020000D0840F5
S31500000F7000000E40704700BF02440346934200D172
S31500000F80704703F8011BF9E70A44431E914200D15A
S31500000F90704710B511F8014B914203F8014FF9D192
S31500000FA010BDFFFF4275696C742077697468205222
S31500000FB0656E6573617320416476616E6365642056
S31500000FC0466C657869626C6520536F6674776172EA
S31500000FD065205061636B6167652076657273696F22
S31500000FE06E20352E352E3000352E352E3000000081
S31500000FF000000505F8B500BFF8BC08BC9E46704762
S31500001000F8B500BFF8BC08BC9E4670470002000059
S315000010100C000C010C020C03000000000000000094
S3150000102000000000000000002C100000000000007E
S315000010300C0000200F00FFFF00000000FFFF000073
S31500001040120000004C100000000000000000010427
S3150000105000010000000C010401010000000C010069
S3150000106008010000000C010009010000000C01004D
S315000010700A010000000000000C010000000C010045
S3150000108000030000040C000001030000040C000033
S3150000109002030000040C000003030000040C00001F
S315000010A000040000040C000001040000040C000011
S315000010B002040000040C000007040000040C0000F9
S315000010C008040000040C000009040000040C0000E1
S315000010D00A040000040C00000005000080018101E4
S315000010E082018301000000000000000000000000F3
S315000010F000000000000000000000000000000000EA
S3150000110000000000000000000000000000000000D9
S3150000111000000000000000000000000000000000C9
S3150000112000000000000000000000000000000000B9
S3150000113000000000000000000000000000000000A9
S315000011400000000000000000000000000000000099
S315000011500000000000000000000000000000000089
S315000011600000000000000000000000000000000079
S315000011700000000000000000000000000000000069
S315000011800000000000000000000000000000000059
S31500001190000000000000000000000000020403043C
S315000011A00404FFFF01000200080010000200000016
S311000011B0B4110000080407040000000051
S315000011BC4200000061626364650D0000400035006A
S30D000011CC2D02000005020000DF
S3150100A100FFFFFFFFFFFFFFFFFFFFFFFFFFFFFFFF58
S3090100A134FFFFFFFF24
S3150100A200FFFCFFFFFFFFFFFFFFFFFFFFFFFFFFFF5A
S3150100A210FFFFFFFFFFFFFFFFFFFFFFFFFFFFFFFF47
S3150100A220FFFFFFFFFFFFFFFFFFFFFFFFFFFFFFFF37
S3150100A230FFFFFFFFFFFFFFFFFFFFFFFFFFFFFFFF27
S3150100A240FFFFFFFFFFFFFFFFFFFFFFFFFFFFFFFF17
S3150100A250FFFFFFFFFFFFFFFFFFFFFFFFFFFFFFFF07
S3150100A260FFFFFFFFFFFFFFFFFFFFFFFFFFFFFFFFF7
S3150100A270FFFFFFFFFFFFFFFFFFFFFFFFFFFFFFFFE7
S3150100A280F8F8FFFFFFFFFFFFFFFFFFFFFFFFFFFFE5
S3150100A290FFFFFFFFFFFFFFFFFFFFFFFFFFFFFFFFC7
S3150100A2A0FFFFFFFFFFFFFFFFFFFFFFFFFFFFFFFFB7
S3150100A2B0FFFFFFFFFFFFFFFFFFFFFFFFFFFFFFFFA7
S3150100A2C0FFFFFFFFFFFFFFFFFFFFFFFFFFFFFFFF97
S70500000E8D5F
