S0120000554152545F5052494E542E73726563EA
S31500000000E8070020490E0000710C0000450E0000B4
S31500000010450E0000450E0000450E0000450E00008E
S31500000020000000000000000000000000450E000077
S31500000030450E000000000000450E0000450E0000C1
S31500000040E50700005907000075080000BD0800001C
S31500000050000000000000000000000000000000009A
S31500000060000000000000000000000000000000008A
S31500000070000000000000000000000000000000007A
S31500000080000000000000000000000000000000006A
S31500000090000000000000000000000000000000005A
S315000000A0000000000000000000000000000000004A
S315000000B0000000000000000000000000000000003A
S315000000C0000000000000000000000000000000002A
S315000000D0000000000000000000000000000000001A
S315000000E0000000000000000000000000000000000A
S315000000F000000000000000000000000000000000FA
S3150000010000000000000000000000000000000000E9
S3150000011000000000000000000000000000000000D9
S3150000012000000000000000000000000000000000C9
S3150000013000000000000000000000000000000000B9
S3150000014000000000000000000000000000000000A9
S315000001500000000000000000000000000000000099
S315000001600000000000000000000000000000000089
S315000001700000000000000000000000000000000079
S315000001800000000000000000000000000000000069
S315000001900000000000000000000000000000000059
S315000001A00000000000000000000000000000000049
S315000001B00000000000000000000000000000000039
S315000001C00348044B834202D0034B03B118477047E0
S315000001D05C0000205C00002000000000064B074980
S315000001E0C91A891048BF0131491003D0044B0BB11D
S315000001F001481847704700BF5C0000205C000020E3
S315000002000000000010B5064C237843B9FFF7D8FF6D
S31500000210044B13B10448AFF300800123237010BDD3
S315000002207800002000000000C01A000008B5054B49
S315000002301BB105490548AFF30080BDE80840FFF74C
S31500000240CDBF00BF000000007C000020C01A0000E7
S3150000025010B500210446C0B00C4B4FF480726846BE
S31500000260197000F087FE2146684600F063FE694675
S315000002700246074800F048F808B940B010BD1821FA
S31500000280044B054A054800F0BFFC00BF940000205F
S31500000290A0000020B4180000E4180000C8180000F0
S315000002A00379022B02D10122014B1A70704700BF5D
S315000002B09400002038B50749074800F06FF8074D4D
S315000002C0074C2846FFF7C4FF2146012000F0A4FC96
S315000002D0F7E700BFEC180000A0000020DC180000C3
S315000002E040420F00022800D070470249024800F041
S315000002F0EBBB00BF201900009800002008B5FFF7EF
S31500000300D9FF002008BD00BF10B4046AA37803F02B
S315000003107B03A3708378046A03F00303D21A0B44A9
S31500000320C0E90332A37843F08003A370837803F017
S315000003300303022B06D0036A0A780020DA705DF800
S31500000340044B70470B88026A43F47E43D381002036
S315000003505DF8044B704700BFF0B5846A85B005466A
S315000003600F4694466E46B4B194E80F0086E80F0037
S31500000370EB6920461B78A760236084F804C0EB6A0B
S31500000380E3606B6A9847AC6A1CB196E80F0084E894
S315000003900F0005B0F0BD3446EAE700BF0122034670
S315000003A00878824012F0060F05D0CA6952681278A2
S315000003B0120700F1CF8100222DE9F041012500F559
S315000003C0800000F58C500002C3E907101A704E69D0
S315000003D098785E628E6965F30100C3E90A26987013
S315000003E04878D34C904214BF2E460226987866F37E
S315000003F00100987091F90BC091F80AE04FEA5C1081
S315000004000CF01F06203005FA06F644F82060BFF30C
S315000004104F8FBFF36F8FC7480CF1C00650F8267098
S3150000042062F3104740F8267050F82660C24E4FEA35
S315000004300E1E04EB0C075FFA8EFE87F800E346F803
S315000004402C3091F905C091F804E04FEA5C170CF0E6
S315000004501F08203705FA08F844F82780BFF34F8FA6
S31500000460BFF36F8F0CF1C00750F8278062F3104876
S3150000047040F8278050F827704FEA0E1E04EB0C0751
S315000004805FFA8EFE87F800E346F82C3091F907C034
S3150000049091F806E04FEA5C170CF01F08203705FAC2
S315000004A008F844F82780BFF34F8FBFF36F8F0CF126
S315000004B0C00750F8278062F3104840F8278050F8AC
S315000004C027704FEA0E1E04EB0C075FFA8EFE87F8C4
S315000004D000E346F82C3091F909C091F808E04FEA9C
S315000004E05C170CF01F08203705FA08F844F8278037
S315000004F0BFF34F8FBFF36F8F0CF1C00750F8278003
S3150000050062F3104840F8278050F827004FEA0E1093
S31500000510C0B2644484F8000346F82C30EFF310862A
S3150000052085F310884FF000450C788448E540446810
S3150000053024EA05044460406886F3108840F21920D6
S315000005401C6AA2701C6A22711C6A62721C6AA27200
S315000005501C6AE2721C6A62830A7820FA02F2D007E9
S3150000056002D540201A6AD074062440F21922186A6D
S3150000057004770878C240D20700F1CA80CA78487862
S315000005808C78D200032842EA041200F0DF800028AB
S315000005900CBFE220F2201C6AD2B222701A6A907155
S315000005A0CC69227B082A00F0CD80186A520002F03E
S315000005B00202427300256278A078D201400100F061
S315000005C02000D2B20243186A057220780238012848
S315000005D0186A40F2A280D2B2C27160681A6A847840
S315000005E054704578147865F301041470C4789474D3
S315000005F0D479007804F0A30400F05C002043D071A5
S315000006000020C3E90300C3E90500DC69494A94F9FF
S315000006100540CD6904F1C00152F8216095F800C08B
S3150000062060F3104642F821600CF0030C52F82110DA
S31500000630BFF35F8F4FF0010E6109890004F01F04BC
S3150000064001F1604101F561410EFA04F4C1F88041FF
S315000006500C60D96991F90B4004F1C00152F8216090
S3150000066060F3104642F8216052F82110BFF35F8F05
S315000006706109890004F01F0401F160410EFA04F4D7
S3150000068001F56141C1F880410C60D96991F90740D3
S3150000069004F1C00152F8216060F3104642F821606F
S315000006A052F82110BFF35F8F6109890004F01F041F
S315000006B001F160410EFA04F401F56141C1F880418F
S315000006C00C60D96991F9091001F1C00452F824604F
S315000006D060F3104642F8246052F82420BFF35F8F7F
S315000006E04A09920001F01F0102F160420EFA01F17F
S315000006F002F56142C2F8801111601A6A4CF0700C62
S3150000070082F802C069890E4A19815A60BDE8F081F3
S315000007104FF478401A6A908230E7FF2545702078BA
S31500000720022808BF42F01002186AD2B2C27167E707
S3150000073000E100E0006000400C010020004008409D
S31500000740554943530A201A6A507333E7F22042F0A0
S31500000750400220E703207047EFF30383103B1F4A54
S315000007605BB203F1C00152F8210020F4803042F858
S31500000770210052F821201A4A52F82300C3691B6946
S3150000078083B1036903B17047026A0021937803F0CD
S315000007907F0343F004039370436AC160C3B18022B0
S315000007A0FFF7DABD0369026A002BEED08378C168D1
S315000007B003F00303022B0CD00B78D3708278D0E9B8
S315000007C0031302F003029B1A1144C0E90313D9E78D
S315000007D070470B8843F47E43D381EFE70060004007
S315000007E00C01002010B582B0EFF30383103B1F4AC3
S315000007F05BB203F1C00152F8210020F4803042F8C8
S31500000800210052F821201A4A52F82340A27802F019
S315000008100303022B236A0CBF198A5979A3690CBFFB
S31500000820C1F30801C9B2019143B9636AB3B10422A5
S31500000830204602B0BDE81040FFF78EBD02F003026D
S3150000084001A9606900F0A6FBD4E90521A37803F0AD
S3150000085003031A44C91AC4E9052109B102B010BD3F
S31500000860636A002BFAD00122E2E700BF0060004075
S315000008700C01002010B5EFF303830E4A103B5CB267
S3150000088052F82400026A937803F07B039370436A5C
S315000008901BB102220021FFF75FFD074A04F1C003E6
S315000008A052F8231021F4803142F8231052F82330F5
S315000008B010BD00BF0C0100200060004010B5EFF332
S315000008C003831A4A103B5CB252F82400837803F083
S315000008D00303022B036A0CBF198A597993F804C0E3
S315000008E00CBFC1F30801C9B21CF0100F0CF038029E
S315000008F006D093F81CC01CF0010F08BF42F040025E
S3150000090093F804C00CF0C70C83F804C0436A0BB11B
S31500000910FFF722FD064A04F1C00352F8231021F422
S31500000920803142F8231052F8233010BD0C0100200C
S31500000930006000402DE9F84F0388DBB182464FF096
S31500000940000B4FF00109DFF8D0800024304D4FEA4C
S31500000950CB07DAF8043035F8022BD9198988914289
S315000009600AD00134032CF4D1BAF800300BF1010B94
S315000009705B45EAD8BDE8F88FDB5909FA04F603F0BF
S31500000980B853B3F1807FF6B298F8BB3413D0334234
S3150000099031D1204A04F1200612F81630DB09E0D0E6
S315000009A012F81630012123F08003C82002F8163011
S315000009B000F032F9D5E7334211D0164A04F120018E
S315000009C012F81130DB09CCD112F81130C82043F0EF
S315000009D0800302F81130012100F01EF9C1E7012061
S315000009E000F0E6F998F8BB340120334388F8BB34AD
S315000009F000F0AEF9E1E7012000F0DAF998F8BB342F
S31500000A00012023EA060388F8BB3400F0A1F9C0E709
S31500000A107C1A00000030084000E00140F8B50646A8
S31500000A20FFF788FFEFF31082012383F31088234F2B
S31500000A303B681BB92249CB704023CB703B6801331E
S31500000A403B6082F31088338823B300211D4D08E0F4
S31500000A501B01134445F82340328801318BB29A4278
S31500000A6018D9736853F8314003EBC1029288E0034A
S31500000A704FEA1223D2B2EBD502EB031055F820E071
S31500000A8024F4803C2EF4803E45F820E01B0145F816
S31500000A9020C0DEE7EFF31082012383F310883B6862
S31500000AA013B13B68013B3B603B681BB9802004499E
S31500000AB0CB70C87082F31088F8BD00BF0801002013
S31500000AC0000D08400008084008B5034B03600846BF
S31500000AD0FFF7A4FF002008BD54524F50064B0749AC
S31500000AE093F826001A6A51F82030C2F302620449CC
S31500000AF0D3400B60704700BF00E001405C0000205F
S31500000B00980200204AF2035001232D492D4A2DE96F
S31500000B10F043A1F8FE03A2F80431B2F804319BB207
S31500000B20002BFAD14FF4004401212748274D846059
S31500000B3004F19874C0E9033304F52D44A2F80011BA
S31500000B4004601F4A224C456192F826504460146A9C
S31500000B5082F8801482F8363092F83C30D907FBD5FB
S31500000B6042F2117400231649148582F82A3091F84E
S31500000B703C309B06FBD505224FF00109F1250024E8
S31500000B804FF0F00E4FF4254CDFF83880114F88F8FF
S31500000B901C910F6281F8262091F826200E4B50F802
S31500000BA02220086A0D4EC0F30260C24032601D73F7
S31500000BB01C7283F80CE0A1F8FEC3BDE8F08300BF09
S31500000BC000E0014000C001405C00002000C2EB0BC9
S31500000BD000127A0021120221002000409802002013
S31500000BE010B50024064B012083F8284000F0E0F8F9
S31500000BF0044B012083F8BB44BDE8104000F0A8B8C0
S31500000C000030084000E0014000BEFEE7A0F1010010
S31500000C100028FBD1704700BF4FF47A7310B400FB75
S31500000C2001F1114C114A2468B2FBF4F2A1FB030452
S31500000C303CB9B0FBF2F0800860B15DF8044BFFF7F9
S31500000C40E5BF9200B1FBF2F1A1FB03132BB90846F5
S31500000C500028F2D15DF8044B70474FF0FF3C5DF879
S31500000C60044B6046FFF7D2BF9802002000CA9A3BA9
S31500000C7070B500240B4B0C4EB3F82021B3F840514D
S31500000C80ADB2154025FA04F3DB0704D556F8243037
S31500000C90E0B203B1984701340E2CF3D1014BA3F80F
S31500000CA0305170BD00600040D000002030B50320F8
S31500000CB085B000F07DF86FF0FF054FF0FF31204C56
S31500000CC0002322464FF0010E1E488564CDE901112E
S31500000CD0039104F1C00532F8020F590960B104A866
S31500000CE000EB810151F80C0C03F01F0C0EFA0CFC02
S31500000CF020EA0C0041F80C0C954203F10103EAD1FD
S31500000D000199114B0F4A03201167C3F8801202990B
S31500000D105167C3F8841203999167C3F8881200F0EB
S31500000D2017F80023094834F8022F03F1C0010133F4
S31500000D300AB140F82120A542F5D105B030BD00BF6B
S31500000D40BA1900000080004000E100E000600040A9
S31500000D50EFF31081012383F31088124B33F8102030
S31500000D6092B22AB133F81020013A92B223F8102039
S31500000D7033F810309BB293B910B40B4A0B4CB2F84F
S31500000D80FE3334F810009BB243F4254323EA0003F4
S31500000D90A2F8FE3381F310885DF8044B704781F3A7
S31500000DA0108870478C02002000E00140841A000081
S31500000DB030B4EFF31081012383F310880E4A32F822
S31500000DC010309BB26BB90D4C0D4DB4F8FE3335F8AF
S31500000DD010C09BB243EA0C0343F425439BB2A4F82C
S31500000DE0FE3332F8103001339BB222F8103081F313
S31500000DF0108830BC704700BF8C02002000E0014024
S31500000E00841A000008B50C4A0346106840B1033343
S31500000E100A4923F0030303448B4205D8136008BD37
S31500000E20074908461160F2E700F0ACF80C220346C9
S31500000E301A604FF0FF3008BD94020020E80300203E
S31500000E40E803002000BE704708B500F003F8FFF77E
S31500000E5055FAFEE74FF4700270B52A4B2A4CC3F8D8
S31500000E60882000209C60FFF73DFAFFF74BFE01202B
S31500000E70FFF738FA2368A3F5806383F30A882348CB
S31500000E80234A0021121A00F075F82248224A234903
S31500000E90121A00F07FF8224D224B5B1B002B07DD58
S31500000EA000249E1055F8043B01349847A642F9DC0D
S31500000EB0FFF714FEFFF794FE0320FFF779FF4FF6C6
S31500000EC0FF720024184B03201A825A829A82DA8211
S31500000ED01A835A83FFF73CFF0320FFF769FF134B82
S31500000EE003205C609C60DC601C61FFF731FF022020
S31500000EF0FFF7F8F9FFF7DAFE2046BDE8704000F08C
S31500000F0017B800BF00ED00E00000000078000020E8
S31500000F10E4030020000000205C000020C41A00004A
S31500000F205400002058000020000D084000000E402C
S31500000F30704700BF0EB400B59CB06FF000411DAB0A
S31500000F4002900690079104910848094953F8042B2A
S31500000F50059102A90068019300F07EF9029B002228
S31500000F601A701CB05DF804EB03B070470400002053
S31500000F700802FFFF02440346934200D1704703F87C
S31500000F80011BF9E7014B1868704700BF04000020F9
S31500000F90704770470A44431E914200D1704710B50E
S31500000FA011F8014B914203F8014FF9D110BDFFFF33
S31500000FB038B50546002941D051F8043C0C1F002BDA
S31500000FC0B8BFE41800F0E0F81D4A136833B963604F
S31500000FD014602846BDE8384000F0DCB8A34208D9C2
S31500000FE0206821188B4201BF19685B6809182160C7
S31500000FF0EDE71A465B680BB1A342FAD9116850189F
S31500001000A0420BD120680144501811608342E0D100
S3150000101018685B68084453601060DAE702D90C234D
S315000010202B60D6E7206821188B4202BF19685B68DF
S315000010300918636008BF21605460CAE738BD00BF65
S31500001040E003002070B50F4E0C460546316811B915
S3150000105000F0A8FB30602146284600F0A3FB431CA5
S3150000106003D14FF0FF34204670BDC41C24F00304A6
S31500001070A042F8D0211A284600F094FB0130F2D1A4
S31500001080EFE700BFDC0300202DE9F843CD1C064640
S3150000109025F0030508350C2D38BF0C25002D01DB86
S315000010A0A94204D90C2333600020BDE8F883DFF899
S315000010B0D48000F069F8D8F800301C4644BB2946B5
S315000010C03046FFF7BFFF431C044658D1D8F800400E
S315000010D02746002F43D1002C4BD023683946304693
S315000010E004EB030900F05EFB814542D121683046DE
S315000010F06D1A2946FFF7A6FF01303AD023682B4424
S315000011002360D8F800305A6862BBC8F800700FE058
S315000011102268521B20D40B2A17D96119A3422560D5
S3150000112018BF5960636808BFC8F8001062514B6069
S31500001130304600F02FF804F10B00231D20F00700C5
S31500001140C21A1CBF1B1AA350AFE76268A3420CBFAA
S31500001150C8F800205A60EBE723466468AEE73C46D1
S315000011607F68B6E71A465B68A342FBD1002353604B
S31500001170DEE70C233046336000F00CF894E7056098
S31500001180D6E700BFE00300200148FFF701BF00BF1C
S31500001190D80300200148FFF7FCBE00BFD80300209B
S315000011A02DE9F0471F468E6882460C46BE429046A1
S315000011B00B682DD8B1F90C2012F4906F26D0656912
S315000011C0096905EB4505A3EB01097B1C05EBD57504
S315000011D04B446D109D4238BF1D46530527D5294601
S315000011E0FFF752FF064660B34A462169FFF7D2FE73
S315000011F0A38923F4906343F08003A38126614E44C0
S315000012006561A5EB090526603E46A560BE4200D98C
S315000012103E4632464146206800F0AAFAA3680020FE
S315000012209B1BA360236833442360BDE8F0872A46EE
S3150000123000F0D6FA06460028E0D121695046FFF7AD
S31500001240B7FE0C234FF0FF30CAF80030A38943F0F5
S315000012504003A381E9E7FFFF2DE9F04F98468B890C
S315000012609DB007461B060D46144610D50B6973B98B
S315000012704021FFF709FF2860286130B90C233B6045
S315000012804FF0FF301DB0BDE8F08F40236B610023A7
S31500001290CDF80C804FF00109DFF8A08109932023D7
S315000012A08DF8293030238DF82A3023469A4613F8D4
S315000012B0012B0AB1252AF9D1BAEB040B0BD05B46F8
S315000012C0224629463846FFF76BFF013000F0A7801B
S315000012D0099A5A4409929AF80030002B00F09F8030
S315000012E000234FF0FF320AF1010A049307938DF8A9
S315000012F053301A93CDE90523544605224F4814F876
S31500001300011B00F05FFA049AD8B9D00644BF202327
S315000013108DF85330110744BF2B238DF853309AF8BC
S3150000132000302A2B15D0079A544600204FF00A0C9D
S31500001330214611F8013B303B092B4BD9B0B107923E
S3150000134014E0A0EB0803A24609FA03F3134304933F
S31500001350D2E7039B191D1B68002B0391BBBF5B42A1
S3150000136042F0020207930793B8BF049223782E2B0C
S315000013700AD163782A2B32D1039B02341A1D1B68CB
S3150000138043EAE37303920593DFF8C0A003222178B2
S31500001390504600F017FA38B1A0EB0A004022049B31
S315000013A0013482401343049314F8011B0622244897
S315000013B08DF8281000F006FA002836D0214B1BBB0A
S315000013C0039B073323F0070308330393099B334436
S315000013D009936AE70CFB02320C460120A8E70023BA
S315000013E001344FF00A0C19460593204610F8012BDC
S315000013F0303A092A03D9002BC6D00591C4E70CFB65
S31500001400012104460123F0E703AB2A4604A9384626
S3150000141000930D4BAFF30080421C0646D6D1AB8934
S315000014205B063FF52DAF09982CE703AB2A4604A9C6
S3150000143038460093044B00F07DF8EDE78C1A000067
S31500001440961A000000000000A1110000921A000088
S315000014502DE9F047164698468A6807460B690C46FA
S31500001460DDF820909342B8BF1346336091F84320CD
S315000014700AB1013333602368990642BF33680233E9
S315000014803360256815F0060506D104F1190AE368EC
S3150000149032689B1AAB422BDC94F843302268003B3F
S315000014A018BF0123920630D404F143024146384660
S315000014B0C847013023D023681A3454F80A2C03F0A5
S315000014C00603042B0ABF54F80E5C002533684FF060
S315000014D0000608BFED1A54F8123C08BF25EAE57568
S315000014E09342C4BF9B1AED18B5421AD1002008E0FA
S315000014F00123524641463846C847013003D14FF0D2
S31500001500FF30BDE8F0870135C1E7E1185A1C3020ED
S315000015100233224481F8430094F8451082F84310C0
S31500001520C2E70123224641463846C8470130E6D085
S315000015300136D9E72DE9FF470F7E914680460C46D6
S31500001540782F9A460C9E01F1430207D8622F0AD8DB
S31500001550002F00F0D180582F00F0B88004F1420629
S3150000156084F842703AE0A7F16303152BF6D801A17F
S3150000157051F823F0CD150000E11500005D150000BF
S315000015805D1500005D1500005D150000E115000009
S315000015905D1500005D1500005D1500005D1500007D
S315000015A0DF1600000B160000991600005D150000FE
S315000015B05D150000011700005D1500000B16000008
S315000015C05D1500005D150000A116000033681A1DA8
S315000015D01B68326004F1420684F8423001239CE025
S315000015E033682068191D3160060601D51D6803E0C1
S315000015F04506FBD5B3F90050002D03DA2D236D42C5
S3150000160084F8433058480A2311E0216833680806F5
S3150000161053F8045B02D4490648BFADB26F2F33605E
S31500001620514814BF0A230823002184F84310666832
S31500001630002EA66005DB21682E4321F004012160FF
S315000016404BD01646B5FBF3F103FB1157C75D06F801
S31500001650017D2F460D46BB42F4D9082B0BD12368DA
S31500001660DF0708D5236961689942DEBF302306F893
S31500001670013C06F1FF36921B22614B4603AA214626
S315000016804046CDF800A0FFF7E3FE01304AD14FF007
S31500001690FF3004B0BDE8F087236843F020032360E1
S315000016A078273248236884F845701F06316851F858
S315000016B0045B02D45F0648BFADB23160D90744BFB0
S315000016C043F0200323601DB11023ADE72648E9E768
S315000016D0236823F020032360F6E71646BDE7336848
S315000016E02568181D616930602E061B6801D51960D2
S315000016F002E06806FBD51980002316462361BCE785
S31500001700336800211A1D32601E686268304600F098
S3150000171059F808B1801B606063682361002384F870
S315000017204330AAE72369324649464046D04701304E
S31500001730ADD023689B0713D4E068039B9842B8BFDB
S315000017401846A6E70123324649464046D0470130AF
S315000017509DD00135E36803995B1AAB42F2DCEBE7F7
S31500001760002504F11906F5E79D1A0000AE1A0000DF
S31500001770884210B501EB020402D98442234607D8F9
S31500001780431EA14208D011F8012B03F8012FF8E7F8
S31500001790024401468A4200D110BD13F8014D02F8F9
S315000017A0014DF7E738B50023054D044608462B6082
S315000017B0FFF728FB431C02D12B6803B1236038BD19
S315000017C0D4030020C9B20346024410B5934218461A
S315000017D001D1002003E0047801338C42F6D110BD1C
S315000017E02DE9F041074614460D4621B91146BDE8DC
S315000017F0F041FFF749BC2AB92546FFF7D9FB284631
S31500001800BDE8F08100F01AF88442064602D8B4EB2F
S31500001810500FF4D821463846FFF736FC804608B903
S315000018204546ECE7B4422246294628BF3246FFF732
S31500001830B1FB29463846FFF7BBFBF1E751F8043CFC
S31500001840181F002BBCBF0B58C01870474275696C37
S315000018507420776974682052656E657361732041E0
S315000018606476616E63656420466C657869626C6552
S3150000187020536F667477617265205061636B616790
S31500001880652076657273696F6E20352E352E3000B1
S31500001890352E352E3000000000000505F8B500BFD6
S315000018A0F8BC08BC9E467047F8B500BFF8BC08BC3B
S315000018B09E467047657272203D3D204653505F53E9
S315000018C055434345535300002E2E2F7372632F68E2
S315000018D0616C5F656E7472792E63000052414855E3
S315000018E04C0D0A007075747300FFFFFF00020000C4
S315000018F00C000C010C020C030000000000000000AC
S31500001900A1020000000000000C1900000000000009
S31500001910000000200F00FFFF00000000FFFF000096
S31500001920120000002C190000000000000000010455
S3150000193000010000000C010401010000000C010080
S3150000194008010000000C010009010000000C010064
S315000019500A010000000000000C010000000C01005C
S3150000196000030000040C000001030000040C00004A
S3150000197002030000040C000003030000040C000036
S3150000198000040000040C000001040000040C000028
S3150000199002040000040C000007040000040C000010
S315000019A008040000040C000009040000040C0000F8
S315000019B00A040000040C00000005000080018101FB
S315000019C0820183010000000000000000000000000A
S315000019D00000000000000000000000000000000001
S315000019E000000000000000000000000000000000F1
S315000019F000000000000000000000000000000000E1
S31500001A0000000000000000000000000000000000D0
S31500001A1000000000000000000000000000000000C0
S31500001A2000000000000000000000000000000000B0
S31500001A3000000000000000000000000000000000A0
S31500001A400000000000000000000000000000000090
S31500001A500000000000000000000000000000000080
S31500001A600000000000000000000000000000000070
S31500001A700000000000000000000000000204030453
S31500001A800404FFFF0100020008001000232D302B84
S31500001A902000686C4C006566674546470030313269
S31500001AA033343536373839414243444546003031C0
S31500001AB0323334353637383961626364656600FF20
S30900001AC0000000001C
S31500001AC44000350008000020000000009C020020B1
S31500001AD4040300206C030020000000000000000046
S31500001AE400000000000000000000000000000000EC
S31500001AF400000000000000000000000000000000DC
S31500001B0400000000000000000000000000000000CB
S31100001B14000000002D0200000502000089
S3150100A100FFFFFFFFFFFFFFFFFFFFFFFFFFFFFFFF58
S3090100A134FFFFFFFF24
S3150100A200FFFCFFFFFFFFFFFFFFFFFFFFFFFFFFFF5A
S3150100A210FFFFFFFFFFFFFFFFFFFFFFFFFFFFFFFF47
S3150100A220FFFFFFFFFFFFFFFFFFFFFFFFFFFFFFFF37
S3150100A230FFFFFFFFFFFFFFFFFFFFFFFFFFFFFFFF27
S3150100A240FFFFFFFFFFFFFFFFFFFFFFFFFFFFFFFF17
S3150100A250FFFFFFFFFFFFFFFFFFFFFFFFFFFFFFFF07
S3150100A260FFFFFFFFFFFFFFFFFFFFFFFFFFFFFFFFF7
S3150100A270FFFFFFFFFFFFFFFFFFFFFFFFFFFFFFFFE7
S3150100A280F8F8FFFFFFFFFFFFFFFFFFFFFFFFFFFFE5
S3150100A290FFFFFFFFFFFFFFFFFFFFFFFFFFFFFFFFC7
S3150100A2A0FFFFFFFFFFFFFFFFFFFFFFFFFFFFFFFFB7
S3150100A2B0FFFFFFFFFFFFFFFFFFFFFFFFFFFFFFFFA7
S3150100A2C0FFFFFFFFFFFFFFFFFFFFFFFFFFFFFFFF97
S70500000E49A3
