S00E0000626C696E6B312E73726563D5
S315000000009804002045060000AD04000041060000EB
S3150000001041060000410600004106000041060000BE
S315000000200000000000000000000000004106000083
S3150000003041060000000000004106000041060000E5
S315000000400348044B834202D0034B03B11847704761
S31500000050080000200800002000000000064B0749A9
S31500000060C91A891048BF0131491003D0044B0BB19E
S3150000007001481847704700BF08000020080000200C
S315000000800000000010B5064C237843B9FFF7D8FFEF
S31500000090044B13B10448AFF300800123237010BD55
S315000000A02800002000000000A009000008B5054B4C
S315000000B01BB105490548AFF30080BDE80840FFF7CE
S315000000C0CDBF00BF000000002C000020A0090000EA
S315000000D02DE9F04100254FF001081A4C1A4F1B4E2E
S315000000E0EFF3108288F31088236813B94021FB7060
S315000000F0F97023680133236082F31088D6F8203123
S3150000010023F0011323F440432B4343F00403C6F8C2
S315000001102031EFF3108288F31088236813B1236827
S31500000120013B2360236813B98021FB70F97082F3C9
S3150000013010884FF47A714FF4FA7085F0010500F0DB
S3150000014089F9CDE784000020000D0840000808402A
S31500000150022800D070470249024800F0D5B800BF17
S31500000160C40700004400002008B5FFF7B1FF0020D7
S3150000017008BD00BF2DE9F84F0388DBB182464FF07A
S31500000180000B4FF00109DFF8D0800024304D4FEA14
S31500000190CB07DAF8043035F8022BD9198988914251
S315000001A00AD00134032CF4D1BAF800300BF1010B5C
S315000001B05B45EAD8BDE8F88FDB5909FA04F603F087
S315000001C0B853B3F1807FF6B298F8BB3413D03342FC
S315000001D031D1204A04F1200612F81630DB09E0D0AE
S315000001E012F81630012123F08003C82002F81630D9
S315000001F000F030F9D5E7334211D0164A04F1200158
S3150000020012F81130DB09CCD112F81130C82043F0B6
S31500000210800302F81130012100F01CF9C1E701202A
S3150000022000F0E4F998F8BB340120334388F8BB3476
S3150000023000F0ACF9E1E7012000F0D8F998F8BB34FA
S31500000240012023EA060388F8BB3400F09FF9C0E7D3
S31500000250D00800000030084000E00140F8B506462E
S31500000260FFF788FFEFF31082012383F31088234FF3
S315000002703B681BB92249CB704023CB703B680133E6
S315000002803B6082F31088338823B300211D4D08E0BC
S315000002901B01134445F82340328801318BB29A4240
S315000002A018D9736853F8314003EBC1029288E00312
S315000002B04FEA1223D2B2EBD502EB031055F820E039
S315000002C024F4803C2EF4803E45F820E01B0145F8DE
S315000002D020C0DEE7EFF31082012383F310883B682A
S315000002E013B13B68013B3B603B681BB98020044966
S315000002F0CB70C87082F31088F8BD00BF8400002060
S31500000300000D08400008084008B5034B0360084686
S31500000310FFF7A4FF002008BD54524F50064B074973
S3150000032093F826001A6A51F82030C2F30262044993
S31500000330D3400B60704700BF00E00140080000207A
S31500000340900000204AF2035001232D492D4A2DE941
S31500000350F043A1F8FE03A2F80431B2F804319BB2CF
S31500000360002BFAD14FF4004401212748274D846021
S3150000037004F19874C0E9033304F52D44A2F8001182
S3150000038004601F4A224C456192F826504460146A64
S3150000039082F8801482F8363092F83C30D907FBD5C3
S315000003A042F2117400231649148582F82A3091F816
S315000003B03C309B06FBD505224FF00109F1250024B0
S315000003C04FF0F00E4FF4254CDFF83880114F88F8C7
S315000003D01C910F6281F8262091F826200E4B50F8CA
S315000003E02220086A0D4EC0F30260C24032601D73BF
S315000003F01C7283F80CE0A1F8FEC3BDE8F08300BFD1
S3150000040000E0014000C001400800002000C2EB0BE4
S3150000041000127A00211202210020004090000020E4
S3150000042010B50024064B012083F8284000F0DEF8C2
S31500000430044B012083F8BB44BDE8104000F0A6B889
S315000004400030084000E00140A0F101000028FBD187
S31500000450704700BF4FF47A7310B400FB01F1114CE2
S31500000460114A2468B2FBF4F2A1FB03043CB9B0FBC9
S31500000470F2F0800860B15DF8044BFFF7E5BF92002B
S31500000480B1FBF2F1A1FB03132BB908460028F2D108
S315000004905DF8044B70474FF0FF3C5DF8044B604637
S315000004A0FFF7D2BF9000002000CA9A3B70B5002427
S315000004B00B4B0C4EB3F82021B3F84051ADB21540AA
S315000004C025FA04F3DB0704D556F82430E0B203B16D
S315000004D0984701340E2CF3D1014BA3F8305170BD6F
S315000004E0006000404C00002030B5032085B000F0CD
S315000004F07DF86FF0FF054FF0FF31204C00232246B8
S315000005004FF0010E1E488564CDE90111039104F1F7
S31500000510C00532F8020F590960B104A800EB810149
S3150000052051F80C0C03F01F0C0EFA0CFC20EA0C0020
S3150000053041F80C0C954203F10103EAD10199114BE4
S315000005400F4A03201167C3F8801202995167C3F856
S31500000550841203999167C3F8881200F017F80023F4
S31500000560094834F8022F03F1C00101330AB140F8FB
S315000005702120A542F5D105B030BD00BFD608000048
S315000005800080004000E100E000600040EFF31081D1
S31500000590012383F31088124B33F8102092B22AB14C
S315000005A033F81020013A92B223F8102033F81030B5
S315000005B09BB293B910B40B4A0B4CB2F8FE3334F825
S315000005C010009BB243F4254323EA0003A2F8FE334E
S315000005D081F310885DF8044B704781F310887047EB
S315000005E08800002000E001409809000030B4EFF3D5
S315000005F01081012383F310880E4A32F810309BB223
S315000006006BB90D4C0D4DB4F8FE3335F810C09BB2E6
S3150000061043EA0C0343F425439BB2A4F8FE3332F8B5
S31500000620103001339BB222F8103081F3108830BCB1
S31500000630704700BF8800002000E0014098090000D4
S3150000064000BE704708B500F003F8FFF78DFDFEE722
S315000006504FF4700270B52A4B2A4CC3F8882000204C
S315000006609C60FFF775FDFFF76DFE0120FFF770FD3B
S315000006702368A3F5806383F30A882348234A00216D
S31500000680121A00F055F82248224A2349121A00F09D
S3150000069057F8224D224B5B1B002B07DD00249E10D2
S315000006A055F8043B01349847A642F9DCFFF736FEBD
S315000006B0FFF7B6FE0320FFF799FF4FF6FF720024FF
S315000006C0184B03201A825A829A82DA821A835A8334
S315000006D0FFF75CFF0320FFF789FF134B03205C60E5
S315000006E09C60DC601C61FFF751FF0220FFF730FDC4
S315000006F0FFF7FAFE2046BDE8704000F017B800BFCD
S3150000070000ED00E00000000028000020940000201A
S315000007100000002008000020A409000000000020BE
S3150000072004000020000D084000000E40704700BF86
S3150000073002440346934200D1704703F8011BF9E7D0
S315000007400A44431E914200D1704710B511F8014B7F
S31500000750914203F8014FF9D110BDFFFF4275696C54
S315000007607420776974682052656E657361732041E1
S315000007706476616E63656420466C657869626C6553
S3150000078020536F667477617265205061636B616791
S31500000790652076657273696F6E20352E352E3000B2
S315000007A0352E352E3000000000000505F8B500BFD7
S315000007B0F8BC08BC9E467047F8B500BFF8BC08BC3C
S315000007C09E46704720000000D00700000000000091
S315000007D00080000000000000008000000100000012
S315000007E000800000020000000080000003000000FE
S315000007F00080000004000000008000000D000000E2
S31500000800000C010400010000000C010401010000BD
S31500000810000C010402010000000C010403010000A9
S31500000820040C000004010000040C00000501000097
S31500000830040C000006010000040C00000701000083
S31500000840000C010008010000000C01000901000075
S31500000850000C01000A010000040C00000B0100005E
S31500000860000000000C010000040C00000D01000057
S31500000870000C010000030000040C0000010300004E
S31500000880040C000002030000040C00000303000037
S31500000890040C000000040000040C00000104000029
S315000008A0040C000002040000040C00000704000011
S315000008B0040C000008040000040C000009040000F9
S315000008C0040C00000A040000040C000000050000EF
S315000008D0020403040404FFFF0000000000000000FF
S315000008E00000000000000000000000000000000002
S315000008F000000000000000000000000000000000F2
S3150000090000000000000000000000000000000000E1
S3150000091000000000000000000000000000000000D1
S3150000092000000000000000000000000000000000C1
S3150000093000000000000000000000000000000000B1
S3150000094000000000000000000000000000000000A1
S315000009500000000000000000000000000000000091
S315000009600000000000000000000000000000000081
S315000009700000000000000000000000000000000071
S315000009800000000000000000000000000000000061
S315000009900000000000000000010002000800100036
S309000009A0000000004D
S30D000009A4AD0000008500000013
S3150100A100FFFFFFFFFFFFFFFFFFFFFFFFFFFFFFFF58
S3090100A134FFFFFFFF24
S3150100A200FFFCFFFFFFFFFFFFFFFFFFFFFFFFFFFF5A
S3150100A210FFFFFFFFFFFFFFFFFFFFFFFFFFFFFFFF47
S3150100A220FFFFFFFFFFFFFFFFFFFFFFFFFFFFFFFF37
S3150100A230FFFFFFFFFFFFFFFFFFFFFFFFFFFFFFFF27
S3150100A240FFFFFFFFFFFFFFFFFFFFFFFFFFFFFFFF17
S3150100A250FFFFFFFFFFFFFFFFFFFFFFFFFFFFFFFF07
S3150100A260FFFFFFFFFFFFFFFFFFFFFFFFFFFFFFFFF7
S3150100A270FFFFFFFFFFFFFFFFFFFFFFFFFFFFFFFFE7
S3150100A280F8F8FFFFFFFFFFFFFFFFFFFFFFFFFFFFE5
S3150100A290FFFFFFFFFFFFFFFFFFFFFFFFFFFFFFFFC7
S3150100A2A0FFFFFFFFFFFFFFFFFFFFFFFFFFFFFFFFB7
S3150100A2B0FFFFFFFFFFFFFFFFFFFFFFFFFFFFFFFFA7
S3150100A2C0FFFFFFFFFFFFFFFFFFFFFFFFFFFFFFFF97
S70500000645AF
